:10000000F8FF002011040000F12400004D21000041
:10001000F1240000F1240000F1240000F12400008C
:10002000F1240000F1240000F1240000F12400007C
:10003000F1240000F1240000592100004B210000B0
:10004000F1240000F1240000F1240000F12400005C
:10005000F1240000F1240000F1240000F12400004C
:10006000F1240000F1240000F1240000F12400003C
:10007000F1240000F1240000F1240000F12400002C
:10008000F1240000F1240000F1240000F12400001C
:10009000F1240000F1240000F1240000F12400000C
:1000A000F1240000F1240000F1240000F1240000FC
:1000B000F1240000F1240000F1240000F1240000EC
:1000C000F1240000F1240000F1240000F1240000DC
:1000D000F1240000F1240000F1240000F1240000CC
:1000E000F1240000F1240000F1240000F1240000BC
:1000F000F1240000F1240000F12400002921000077
:10010000F1240000F1240000F1240000F12400009B
:10011000F1240000F1240000F1240000F12400008B
:10012000F1240000F1240000F1240000F12400007B
:10013000F1240000F1240000A9210000AB210000FF
:10014000F1240000F1240000F1240000F12400005B
:10015000FD1D0000F1240000F1240000F124000046
:10016000F1240000F1240000F1240000F12400003B
:10017000F1240000F1240000F1240000F12400002B
:10018000F1240000F1240000F1240000F12400001B
:10019000F1240000F1240000F12400005B210000A4
:1001A00081210000F1240000F1240000F12400006E
:1001B000F1240000F1240000F1240000F1240000EB
:1001C000F1240000F1240000F1240000F1240000DB
:1001D000F1240000F1240000F1240000F1240000CB
:1001E000F1240000F1240000F1240000F1240000BB
:10040000FFFFFFFFFFFFFFFFFFFFFFFFFEFFFFFFFD
:1004100062B64FF000004FF000014FF000024FF0C5
:1004200000034FF000044FF000054FF000064FF0BE
:1004300000074FF000084FF000094FF0000A4FF09E
:10044000000B4FF0000C02F011F9FEE710B50C465E
:100450001168012902D0022904D008E05168C0B215
:10046000884704E0916808709068401C906020689C
:10047000401C206010BD30B4002400F8014B002A5D
:10048000096812D091B191FBF3F203FB121100291C
:1004900046BFC94301F1310501F130051146641C25
:1004A00000F8015B0029EED114E019B93021017088
:1004B00001240FE0B1FBF3F203FB12110A2934BF50
:1004C00001F1300501F137051146641C00F8015BAC
:1004D0000029EFD1204630BC70472DE9F04F8DB098
:1004E00080460020924600900D4604E0424600A956
:1004F000FFF7ACFF6D1C2878002800F093812528B9
:100500000AD00A28F2D1424600A90D20FFF79EFF2B
:10051000424600A90A20EBE7002601E046F010065B
:1005200015F8010F20280ED02328F7D02B2807D04C
:100530002D2802D0302809D00BE046F00106EFE765
:1005400046F00206ECE746F00406E9E746F0080646
:10055000E6E7691E4FF0000905E009EB890200EBB0
:100560004200A0F1300911F8010FA0F13002092A70
:10057000F3D92E2804D111F8010F30380928FAD9FF
:100580004D1E15F8010F4C2818BF682802D06C28A2
:1005900018BF6D1E15F8010F582861D0622800F0B1
:1005A000BB80632800F00681642818BF692811D039
:1005B0006E2800F032816F2800F0A980702800F0CA
:1005C000B080732800F0FA80752800F0AF8078289A
:1005D00046D08BE75AF8040B03900A23012203A9A3
:1005E00004A8FFF748FF044604A8201802900398C7
:1005F000002848BF2D2706D4B00748BF2B2702D4B8
:10060000700702D52027641C00E00027300712D5B0
:1006100027B1424600A93846FFF718FF4C4501DBD9
:100620004C46ABE0424600A93020FFF70FFF641CA8
:100630004C45F7DBF4E7F0070BD4A3464C4508DA4A
:10064000424600A92020FFF701FF0BF1010BCB452B
:10065000F6DB002F00F09280424600A9384697E072
:100660005AF8040B01901023002201A904A8FFF7F7
:1006700002FF044604A8201802900027300718D56E
:10068000F0060AD5424600A93020FFF7DFFE4246B9
:1006900000A97820FFF7DAFE01274C4507DA424629
:1006A00000A93020FFF7D2FE641C4C45F7DB4C4616
:1006B0001DE0F0071BD4F00648BFA41CA346CB45A1
:1006C00008DA424600A92020FFF7C0FE0BF1010B1B
:1006D000CB45F6DBF0060AD5424600A93020FFF7ED
:1006E000B5FE424600A97820FFF7B0FE0127F006CC
:1006F00044D5002F42D1424600A93020FFF7A6FE84
:10070000424600A97820FFF7A1FEA41C36E05AF863
:10071000040B019008230DE05AF8040B019002230A
:1007200008E05AF8040B0190102303E05AF8040B78
:1007300001900A23002201A904A8FFF79CFE0446A9
:1007400004A82018029030070BD54C45BFF668AFBF
:10075000424600A93020FFF779FE641C4C45F7DBC8
:100760005EE7F0070AD427464C4507DA424600A95F
:100770002020FFF76BFE7F1C4F45F7DB02980078C7
:1007800048B10298401E0290401C4246007800A9E1
:10079000FFF75CFEF2E7F0077FF5ACAE4C45BFF625
:1007A000A9AE424600A92020FFF750FE641C4C452C
:1007B000F7DB9FE65AF8040BC0B297E65AF8047BC1
:1007C000002F3FF497AE384600F042F80446F00799
:1007D0000BD4A3464C4508DA424600A92020FFF777
:1007E00035FE0BF1010BCB45F6DB387830B117F84D
:1007F000010B424600A9FFF729FEF6E7F0077FF557
:1008000079AE4C45BFF676AE424600A92020FFF7F0
:100810001DFE641C4C45F7DB6CE65AF8040B00998E
:10082000016067E600980DB0BDE8F08F0EB400B52A
:1008300084B00121009105AA04490191014600A854
:10084000FFF74BFE04B05DF810FB00008D260000A2
:10085000002108B97047491C10F8012B002AFAD171
:1008600008467047F0B4DFF8A0414FF47A75246869
:100870006C4365082C0CB4FBF2F6B6B2002400E021
:10088000641C46FA04F7012FFADAB2F57A7F38BF12
:10089000641CE540B5FBF2F292B2551C6B43642533
:1008A000B3FBF5F318B102286CD04FD385E0DFF825
:1008B0005C510729EE6846F08076EE6000F2948085
:1008C000DFE801F0040C141C242C343CAE6846F420
:1008D0000066AE604FF480664D4D48E0AE6846F469
:1008E0000066AE604FF48066494D49E0AE6846F45C
:1008F0000066AE604FF48066454D54E0AE6846F445
:100900000066AE604FF48066414D55E0AE6846F437
:100910008056AE604FF480663E4D28E0AE6846F4E7
:100920008056AE604FF480663A4D29E0AE6846F4DA
:100930008056AE604FF48066364D34E0AE6846F4C3
:100940008056AE604FF48066324D35E02F4DEE6834
:1009500046F00076EE6019B101290AD0F0BC70476C
:10096000AE6846F40076AE604FF440762A4D2E60B5
:1009700023E0AE6846F40076AE604FF44076264D34
:100980006E601AE0214D2E6846F080762E6019B117
:1009900001290AD0F0BC7047AE6846F40076AE601C
:1009A0004FF440761C4DAE6007E0AE6846F400762A
:1009B000AE604FF44076184DEE60184D04F0070419
:1009C00055F8200000EBC10144F02804CD6825F063
:1009D0000405CD602825CD6004600024C4648260D5
:1009E000C4649BB20B614460F0BC70470B4B53F87E
:1009F000200083685B1C5A43642300EBC100B2FBF8
:100A0000F3F2026170470000A405FF1F308004402C
:100A100004B0044010C00440209004401004FF1FA4
:100A200010B101284BD070476948426A42F0006219
:100A30004262026822F09002026000220260A1F18C
:100A400008020A2A00F28080DFE802F05D5D0606F7
:100A5000131320207E2D2D00026A42F400720262E0
:100A6000880000F1804000F59220002140F80C1C25
:100A70007047026A42F480620262880000F180409E
:100A800000F59420002140F8281C7047026A42F4C7
:100A900000620262880000F1804000F5962000218B
:100AA00040F8381C7047026A42F400520262880023
:100AB00000F1804000F59A200021C1617047444850
:100AC000826942F000628261026822F41042026090
:100AD000002202600A1F0D2A36D8DFE802F007075D
:100AE00007071414212121212121352E026A42F405
:100AF00000520262880000F1804000F59A20002137
:100B000040F8101C7047026A42F48062026288005A
:100B100000F1804000F59420283800218160704762
:100B2000026A42F480620262880000F1804000F5AF
:100B300094202838002101617047016A41F4007156
:100B40000162002123480160704710B5044600F09F
:100B500012F8214800F1100151F824100968090623
:100B6000F8D500EB8400016908690A6822F0800268
:100B70000A6080B210BD184B01F01F0141F0400126
:100B80001972910001F00C0141F05001197004211B
:100B9000597041F2342145F2786203EB80005980AC
:100BA0009A80006993F800C0C0F808C04FF0040CA8
:100BB000C0F80CC08161C26199790162D979416242
:100BC000D9680165197A0160597A4160704700005F
:100BD00018800440449004401C04FF1FDFF800F01C
:100BE0007D04FF1F70B5002800F08C8030281ED0D7
:100BF000322826D0602827D0642849D06E2826D0F5
:100C0000782827D07D2828D0822829D08C282AD05F
:100C100096282BD0A0282CD0AA282CD0B4282DD0B0
:100C2000C8282ED0E1282ED0FA282ED02FE0182167
:100C30000022574C217000216270A170332829D204
:100C400034E018210122F4E718211822F1E71821D5
:100C50001F22EEE713211822EBE713211A22E8E7FF
:100C600013211C22E5E70E211222E2E70E211522B4
:100C7000DFE70E21EFE70E211B22DAE70E211E220D
:100C8000D7E70C21EDE70B21F9E70A21E0E7642023
:100C90001821E3E7652838BF012107D3972838BF1B
:100CA000022103D3C92834BF03210F21E1701A2880
:100CB000E178217138BF002023D3332838BF0120C9
:100CC0001FD34C2838BF02201BD3652838BF032010
:100CD00017D37E2838BF042013D3972838BF0520A8
:100CE0000FD3B02838BF06200BD3C92838BF072040
:100CF00007D3E22838BF082003D3FB2834BF0920DC
:100D00000F2060713221224C224E6078183080B260
:100D100048432178491C89B290FBF1F5002070709E
:100D20001D48016841F0805101601C48017841F084
:100D30008001017098203070B079C006FCD4B07981
:100D4000C0F381000228FAD1207800F01F00307132
:100D50000020707163792279E178A078FFF73EFF77
:100D6000607800F01F0040F040007071B07980069C
:100D7000FCD5B0794006FCD5307800F03F003070EB
:100D8000B079C0F381000328FAD1E8B270BD00BF8A
:100D90005C04FF1F004006403480044008C0074048
:100DA0002DE9F04F83B001220D210020FFF7CDFE89
:100DB00000F0CAF8044601220C210020FFF7C5FE0E
:100DC00000F0C2F8554900F0DFF898BF544805D943
:100DD0004FF07E5100F0EAF838BF084651490968E3
:100DE00000F0F6F8504E514FDFF84491DFF844A17F
:100DF000DFF844B10546756170693060B06900F094
:100E00005BF9CDE90001706900F056F952465B4686
:100E100000F07AF93A464B4600F076F9DDE9002316
:100E200000F044FA00F0B6FAB061F060706900F0CA
:100E300043F93A464B4600F067F900F0ABFAF0612F
:100E400020463E4900F0EEFA0446306A746000F035
:100E500033F9CDE90001284600F02EF952465B46F1
:100E600000F052F93A464B4600F04EF9DDE9002316
:100E700000F01CFA00F08EFA0546706A014600F098
:100E800013FB4FF07A5100F0CDFA00F015F900F0A5
:100E900077FB00F07FFA0746394600F005FB8046F5
:100EA000274900F0BFFA0146404600F0E1FB00F0A0
:100EB00003F900F065FB00F06DFA804620462946F4
:100EC00000F086F80146404600F0EEFA014628465A
:100ED00000F0A8FA044634624FF07E50414600F01C
:100EE00077F80146384600F0DFFA0146384600F050
:100EF000DBFA00F0E1F800F043FB00F04BFA70621F
:100F000034613069B0600F48006820B903B0BDE8B3
:100F1000F04F00F043BC03B0BDE8F08F01F07F4517
:100F200000F07F456C05FF1F3805FF1FAE47E17AD3
:100F300014AE2EC07B14AE47E17A743F0040F8C473
:100F40000000C8437005FF1F002800BF0AD0B0FA98
:100F500080F18840D1F19D01C905020672F100427D
:100F600041EB1020704750F8041B61B150F8042B7E
:100F7000D30744BFA9F101039A18002342F8043BA8
:100F8000091FFAD1EFE770474FF0807C1CEB400F50
:100F900094BF1CEB410F05E040EA010C5FEA4C0CEA
:100FA00001D28142704718BF884270474FF0807C61
:100FB0001CEB400F94BF1CEB410F05E040EA010C15
:100FC0005FEA4C0C01D28842704718BF81427047DB
:100FD00090EA010F44BF81F0004100F02BBA00BF3E
:100FE000431A4FF000423EBF5340C01AC91800BF19
:100FF000D3095FEAD05C13EB400F34BFB3EB410F72
:1010000040E07CEBD1530CD342EA012122D8D1EB52
:10101000402009D3400A28BF5FEA500140EBCC5082
:101020007047401A15D04002B0FA80F2521C90402E
:10103000400A4FEA3C23B3EB026384BF00EB73002A
:1010400007E040F400001A16DB07C2F10102D040AD
:1010500018437047182BFCDC31FA03F202FA03F351
:10106000591A38BF42F00102D2EB40203CBF400089
:10107000ACF1010C5FEACC5CC20572F100414CEBB3
:101080005020704713EB400F0FD24B0009D0ACEB50
:10109000D153022B03DB4902172BDDDD704791434F
:1010A000401A4300D5D10020704713EB410FD0D335
:1010B0006FF00000704700005FF0FF0C1CEAD05199
:1010C00014BF614506E0C110400721F0E04101F185
:1010D0006051704779B900F0004100020AD0B0FABF
:1010E00080FC00FA0CF001F16051A1EB0C5101EB16
:1010F000D0214005704741020CBF40F4E0016FF081
:101100000001002070470000B0B581EA030C0CF02C
:10111000004C40F2FF7515EA11541DBF15EA135734
:10112000AC42AF4239E0E41923EA455343F480135B
:10113000C90241F0004141EA505EC7021100A7FB1D
:10114000020200284FF00000EEFB01204FF00001EA
:10115000E3FB072118BF42F001024018002149417A
:10116000E3FB0E01A4F580640F0302D2520040415C
:10117000494154F101046CDD470872F1004250F11D
:10118000000051EB0451A1F580115CBF41EA0C0154
:10119000B0BD4CEA05510020B0BD05EA1357AC4282
:1011A00014BFAF4241E050EA410E1CBF52EA430E69
:1011B00002E061460020B0BD24423C441BD15FEAFE
:1011C000070EF6D0090302BF01460020AEF1140E4F
:1011D000B1FA81F7AEEB070401FA07FE0C37C7F14D
:1011E000200100FA07F7C8404EEA000E23EA4553F3
:1011F00043F48013A2E733F00043B3FA83F704BF4C
:10120000B2FA82FE77440B3FE41BB7F1200E2FBFEA
:1012100002FA0EF3BB40C7F1200E22FA0EFE38BFD1
:1012200043EA0E03BA40641C82E750EA410E14BF41
:1012300052EA430E6FF000014FF4001717EB430F13
:101240008ABF194617EB410FB5E74CEA055100205C
:10125000B0BDD4F10104B4F120070FDAC4F12007C6
:10126000520828BF42F0010210FA07F501FA07F709
:10127000E1BF2A43E0403843E1400FE0352C98DCE1
:10128000C7F1200452EA400220FA07F218BF42F0E8
:10129000010231FA07F0A1400A43002172F1004235
:1012A00050F1000051EB0C01B0BD000070B44FF0E4
:1012B000004591EA030C44BF6B4000F0E5BA00BF63
:1012C000841A71EB030603D2001BB141121973415A
:1012D0004FF4001C1CEB410F34BF7CEB430443E094
:1012E0000C0DA4EB1356352E50DC45EAC323DB0A64
:1012F00045EAC121C912B6F120050DDD63FA05F6F4
:10130000EB4086EA0305124218BF45F00105C018FC
:1013100051F100010CD213E062FA06F5F24055409B
:10132000F3415A40B340F3405A408018594107D323
:1013300049085FEA30005FEA350528BF45F001053E
:1013400001F58011420875F1004250F1000041EBB7
:10135000045170BC4FF4001C1CEB410F38BF7047A8
:101360000020090D090570471CEB410F10D252EA0D
:1013700043060BD0BCEB410F05D80C0DAB43661EEA
:10138000342EB5DD02E0AB438018594170BC704784
:1013900070BC70474FEAF17CBCF1E04C2CBFBCF54F
:1013A000001F11E05FEA4C0C34BFBCF17F5F2EE000
:1013B0005FEA9C0C4FEA0C1C4FEA3C0CC10071F137
:1013C00000414CEB50707047C90241EA5051C002D5
:1013D00018BF41F0010141F000414FEA6C50C0F1EB
:1013E0000900212810D240EACC7CCCF1200C11FA63
:1013F0000CF070F10040CCF1200C21FA0CF00CF054
:10140000004C40EB0C0070474FEACC70704749002D
:1014100011F5001F04D84FEACC10FF30C00570470B
:10142000C817704790EA010F44BF81F00041FFF7F1
:10143000D7BD00BF421A3CBF801A89184FF0004C3C
:10144000C0F3C752FF2A24D0C1F3C75313B3D21A33
:10145000D2F1190327DD4CEA01214CFA03F321EA0A
:101460000303D140C20D4CEA0020401834BF20EAEB
:101470000C004CEA5000D20553EA006373EB0C0CED
:1014800052EB1020420012F1807F38BF7047C00D30
:10149000C0057047490212BF9A4200EB5120F8E79D
:1014A000D2F11703D9D57047FF2212EAD05C1DBFD5
:1014B00012EAD153944593422BE09C44D30780EA2F
:1014C00001021A4043EA002043EA0121A1FB003057
:1014D000410038BF40007CF17F010BDBFE294ADA76
:1014E0005B0842EAC15153EA006373F1004C51EBCF
:1014F00010207047D1F1080CDCF120012FDB5B08D4
:1015000010FA01F10B4373F1004120FA0CF0504145
:10151000704794451CBF02EAD153934280EA01020E
:1015200002F000421DD0400019D0490017D05BB92D
:10153000634514D00902B1FA81F39940BCEB030C66
:10154000C00140F00040C1E70002B0FA80FC10FA90
:101550000CF0B3EB0C0CC90141F00041B6E71000F0
:10156000704740000AD0490008D010F1807F94BF36
:1015700011F1807F02E042F0FF407047D043704796
:1015800040F2FF7C0B0D4DD0634566D230B421EAAA
:10159000035141F4801103F2FD3C5FEA5C0C01D37E
:1015A00000184941890041EA907180004FF44014CD
:1015B0000023E202D50AB1F5100107D46D081DD24F
:1015C000091B641900184941491BF7D56D080AD257
:1015D0000919641B00184941491BEFD56D08F7D361
:1015E00001E0520817D0C01861419B1AAC410018A5
:1015F0004941801AA941F4D452080AD0C01AA14125
:101600009B186C4100184941801AA941E9D452083D
:10161000F4D15B1C6C4161084FEA330001EB0C51C3
:1016200030BC704750EA0103FBD030B4B1FA81F30B
:1016300011B9B0FA80F41B190B3BB3F120042FBF92
:1016400000FA04F19940C3F1200420FA04F438BFF1
:1016500021439840D3F101039DE76345E1D011F5A3
:10166000801FDED850EA4101DBD0D94300F0C2B977
:1016700010B5FF2313EAD0541DBF13EAD1529C4288
:101680009A4239E0A41ADA0780EA0103134042EAD9
:10169000012142EA0020421A3CBF641E01EB4202D3
:1016A000090AB2FBF1FE01FB1E221202B2FBF1F0AD
:1016B00001FB10226EF30F201202B2FBF1FE4EEA84
:1016C00000207F3406DDFE2C24DA53EA500050EB74
:1016D000C45010BDD4F1020401FB1E2240F0807101
:1016E000192C1DDC21FA04F0C4F12004A14011439F
:1016F00071F10042584110BD9C421ABF03EAD15219
:101700009A420FE080EA010E0EF00043400004D040
:10171000490016D143F0FF4010BD490008BFD34334
:10172000180010BD9C4205D1D21AF7D001F000413B
:10173000484010BD4A0212BF0846484000F0004031
:1017400010BD4AB90902B1FA81F2914044B1A4181E
:10175000C00140F000409EE7C90141F00041524203
:101760000002B0FA80F4A040141B94E730B44FF6A6
:10177000FF7281B14AF201030478624008245510D7
:10178000D20746BF83EA050292B2AAB2641EF6D11E
:10179000401C491EF0D130BC1046704770B58CB06B
:1017A00007A8002100220B460C461EC003A8344D9A
:1017B0001EC000A803AC0EC0286807AE00F020F9D8
:1017C00007900390686800F01BF970606060A8687B
:1017D00000F016F9B060A060E86800F011F9F06060
:1017E000E06000AD03988DF8000008210398000A1E
:1017F0008DF801006068A870000A8DF80300A068E9
:101800002871000A8DF80500E0688DF80600000ACE
:10181000E87100A8FFF7AAFF2872C11100EB116060
:1018200000128DF8090000AC0A2514F8011B0220F3
:1018300000F096F96D1EF8D10CB070BD38B50221DC
:10184000022000F08DF9FD21022000F089F90D4CF5
:1018500010252078022804BF0120207014F8011BF5
:10186000022000F07DF96D1EF3D1FD21022000F071
:1018700077F9BDE834400221022000F071B9000080
:101880003805FF1FB804FF1F841A71EB030604D24A
:101890006E40001BB141121973414FF4001C1CEB48
:1018A000410F34BF7CEB430684E00C0DA4EB1356D0
:1018B000362E7DDC012E43DC45EAC32343EA525336
:1018C00012BFD20292025B08240545EAC12141EA17
:1018D0005051D2EBC020994125D407D1B0FA80F6FF
:1018E00010FA06F164D00020203608E0B1FA81F643
:1018F000B140C6F1200220FA02F21143B0404FEA93
:10190000F474B4EB465434F001064FEA74040AD878
:10191000D6F50016760D04F00044F04061FA06F2A8
:101920005040F1404840C00A40EA415021F0004197
:1019300028BF5FEA500550F1000044EBD12137E0A9
:1019400045EAC323DB0A45EAC121C90AB6F12005ED
:101950000EDD42EA0242120CC5F1200603FA06F639
:10196000EB4042EA06056D42984161F100010DE04D
:1019700062FA06F5F240554063FA06FC82EA0C0270
:10198000F3405A406D42904161EB030111F4801F16
:1019900005D1641E620502D06D004041494121F429
:1019A0008011430875F1004350F1000041EB0451F0
:1019B00070BC70471CEB410F15D223F0004352EA74
:1019C00043060BD04FEA4C0CBCEB410F04D80C0D76
:1019D000661E342EB7DDEBE7801A994150EA4106C6
:1019E00008BF0021E4E708BF1CEB430F28BF6FF0DE
:1019F0000001DDE71FB500F0D9F8212101601FBD0E
:101A00004100090E7F3915D4D1F11F0114D44000D3
:101A100007D2C00140F00040C84048BF6FF000400E
:101A20007047C00140F00040C8404CBF4FF000403C
:101A3000404270470020704700424FF0004058BFBE
:101A4000C0437047F0B4052841D8DFE800F0030D2B
:101A500017212C364E4A4FF44073136153614D4A9F
:101A6000D36843F480631CE04B4A4FF44073136027
:101A70005360484AD36843F4006312E0444A4FF489
:101A8000407353601360434AD36843F4805308E0C3
:101A9000414A4FF44073536393633E4AD36843F41F
:101AA0000053D36013E03D4A4FF440735364136412
:101AB000384A136843F4806308E0384A4FF44073AF
:101AC00053601360334A136843F400631360344B6C
:101AD000024653F82240E57805F0F305E57000254D
:101AE00053F82240A57040B9012400204FF47A75C4
:101AF000204314BF2B482C4803E000240128F4D1D4
:101B0000F4E70068684353F822500901B0FBF1F490
:101B10002E7827043F0E06F0E00607F01F073E432D
:101B20002E70400153F82250B0FBF1F06C7000F0C1
:101B30001F0053F82240A57A05F0E0052843A07263
:101B400053F82200C17841F00C01C170F0BC70471D
:101B5000134951F8202013799B06FCD5D0797047A2
:101B60000F4A52F8203093F804C05FEA0C6CFAD5A3
:101B7000D971704738B504460D4604E015F8011BCD
:101B80002046FFF7EDFF28780028F7D131BD00008F
:101B900008C00440288004400CB0044020D0044019
:101BA0006404FF1F9C05FF1FA405FF1F014800F0F0
:101BB00003B80000A805FF1F7047000080B501238F
:101BC00001220621022000F099F8002301220321BE
:101BD000022000F093F800234FF47A5203211846B4
:101BE000FEF740FE01231A460521022000F086F888
:101BF000012200231146022000F080F8BDE80050C9
:101C000000234FF47A5201211846FEF72BBE38B557
:101C1000364D6969E869FFF705FC696AFFF702FC60
:101C200029696860A869FFF7FDFB296AFFF7FAFBDD
:101C3000FFF742FA2E4A2F4BFFF766FAFFF7AAFB8F
:101C400028600021FFF7A0F90CD800F09DF8A860EB
:101C500000220121022000F07CF8AA680121002066
:101C6000FEF7C4FE68680021FFF78EF90CD800F07B
:101C70008BF8E86000220321022000F06AF8EA688D
:101C800003210020FEF7B2FE2C6820460021FFF75A
:101C90008DF910D218482146FFF7C4FB00F074F804
:101CA000A86001220121022000F053F8AA68012156
:101CB0000020FEF79BFE6C6820460021FFF776F9B6
:101CC00012D20D482146FFF7ADFB00F05DF8E86049
:101CD00001220321022000F03CF8EA68BDE8384008
:101CE00003210020FEF782BE31BD00007405FF1FF6
:101CF0001F85EB51B81EF13F0000C84270B4214C63
:101D000004EB800542F480766D6945F82160D507C3
:101D100003D5032A18BF132A0AD154F8200001233F
:101D2000426903FA01F122EA0101416170BC704786
:101D300054F82000012202FA01F142690A4342618B
:101D4000012B02680CBF114322EA0101016070BC43
:101D500070470C4B53F820000123012A026803FA54
:101D600001F10CBF114322EA010101607047054AED
:101D7000012352F8200003FA01F10268514001608A
:101D8000704700003404FF1F40000DD2010E7F3960
:101D90000AD4D1F11F0104D4C00140F00040C84072
:101DA00070477FF000007047002070470123012238
:101DB00004210020FFF7A2FF00230122052118467D
:101DC000FFF79CFF0D210020FEF72AFE0C210020CA
:101DD000FEF726FE4FF416510220FFF733FEFFF701
:101DE000EDFE00F0D5F8354801210160FFF726FD32
:101DF00033480168002000F0DFF8FEE710B5314CF1
:101E000020686168401C2060042938D059B9A16855
:101E1000491C41F28932A160914243DB0021A1605B
:101E20000121616001E0012915D1012821D10122A0
:101E30000C210020FEF789FEFFF786F8E168FFF726
:101E4000F1FAE060A068401CA060B0F57A7F02D192
:101E50000220606002E0606802280AD1E0681A4946
:101E6000FFF706FCE060012205210020FFF771FF6B
:101E700002E06068032815D10420606012E00128A8
:101E800008BFFEF78DFF2068022808BF00F025F884
:101E90002068042808BF00F0B1F82068052808BFB2
:101EA000FFF7B5FE20680628A4BF00202060074881
:101EB000016841F00101016010BD00007005FF1FC5
:101EC000A405FF1F6005FF1F00C079440C7103408B
:101ED0000A2000BF401EFCD1704738B500221021F7
:101EE0000120FFF736FF002212210120FFF731FF0A
:101EF000FFF7EEFF012210210120FFF72AFFFFF775
:101F0000E7FF012212211046FFF723FFFFF7E0FF52
:101F1000002210210120FFF71CFFFFF7D9FF1B4C07
:101F200000220E210120FEF710FE04F8010B002212
:101F300012210120FFF70DFF7F25FFF7C9FF0122C6
:101F400012210120FFF705FFFFF7C2FF00220E213B
:101F50000120FEF7FAFD04F8010B002212210120F6
:101F6000FFF7F7FE6D1EE8D1FFF7B2FF0122122145
:101F70000120FFF7EEFEFFF7ABFF00221221012048
:101F8000FFF7E7FEBDE83140A2E70000B804FF1FFD
:101F900080B50023012210210120FFF7AFFE0122AE
:101FA000002312211046FFF7A9FEBDE804400E21D0
:101FB0000120FEF735BD00000D4A136843F400030D
:101FC00013600C4A13689B089B00FFE71360020133
:101FD000094B4430D150D118CA6842F00102CA609E
:101FE0008A6842F003028A6000F04DB800000000E9
:101FF0003C800440007003400071034030B5164837
:1020000016490068FEF7C0FF03D91549FEF7CEFF59
:1020100002D20020002119E01249FFF745FAFFF72C
:102020004BF8044610480D460068FFF745F80F4A84
:102030000F4BFFF769F80F4B0022FFF765F82246B8
:102040002B46FFF733F9FFF7A5F901460A4A11605D
:102050000A49086030BD00BF4805FF1F0100A042CB
:102060000000A0C26666663F5405FF1F7B14AE47A2
:10207000E17A743F000014408805FF1F8405FF1FAC
:1020800018490860704710B504465C2CA4BF0FF2D5
:102090006000FEF7CBFB201104EBD060401103D0B1
:1020A000022815D00AD310BD0121A4EB401001FA7B
:1020B00000F00D4908600D49086010BD0121A4EB36
:1020C000401001FA00F0084948600849486010BD16
:1020D0000121A4EB401001FA00F003498860034994
:1020E000886010BD08ED00E080E200E000E100E063
:1020F0000A4552522120496E76616C69642049522A
:10210000512076616C75652070617373656420740D
:102110006F20656E61626C65206972712066756EF4
:102120006374696F6E210A0010B572B60120FFF763
:102130000FFD04460FF2B0010120FFF71BFD214601
:102140000120FFF70DFD62B610BD70470FF2AC0421
:102150002046FEF76BFBFBE7704720480168C90784
:1021600003D5016841F0010101600168490106D50C
:10217000016841F0806101600D2000F082B8704775
:1021800010B5174C2068C00706D5206840F0010044
:1021900020600D2000F075F82068400503D5206808
:1021A00040F48060206010BD704738B50D4C0020B1
:1021B000656C6064E8070AD5206820F04000206064
:1021C0000D2000F05EF80FF25400FEF72FFBA80779
:1021D00003D5A06820F04000A06031BDA09004406D
:1021E000A0A004400C9003400AC4E3B7A2CBCDB535
:1021F000C4CAFDBEDDCEAAA3BA0000000A2A2A2A5C
:102200002AD3B2BCFEC9CFB7C3B4EDCEF32121218E
:102210002A2A2A2A2A0D0A0A000000000A46544DDA
:1022200031B7A2CBCDD6D0B6CF0A000080B50123FE
:1022300001220C210320FFF761FD01231A460D2125
:102240000320FFF75BFD01231A460E210320FFF751
:1022500055FDBDE8005001231A460F210320FFF76A
:102260004DBD2D4A4FF0010CD2680CFA00FC1368EA
:1022700001F0010123EA0C0301FA00F01843106099
:10228000704701460320FFF772BD80B5012301228C
:102290000C210320FFF732FD01231A460D210320F4
:1022A000FFF72CFD01231A460E210320FFF726FD20
:1022B00001231A460F210320FFF720FD00210C20E7
:1022C000FFF7CFFF642000F029F801210C20FFF771
:1022D000C8FF00210D20FFF7C4FF642000F01EF8A6
:1022E00001210D20FFF7BDFF00210E20FFF7B9FFF0
:1022F000642000F013F801210E20FFF7B2FF002147
:102300000F20FFF7AEFF642000F008F8BDE804409E
:1023100001210F20A5E700003404FF1F38B1044954
:10232000096811B100BF491EFCD1401EF7D17047AA
:10233000A405FF1F62B38B0708D0521E11F8013BA2
:1023400000F8013B00F024808B07F6D1830740F0B2
:10235000208000BF103A07D330B4B1E83810103AEB
:10236000A0E83810F9D230BC530724BFB1E80810F8
:10237000A0E8081044BF51F8043B40F8043BD207E2
:1023800024BF31F8022B20F8022B44BF0B780370D6
:102390007047083A07D3B1E80810083A40F8043B00
:1023A00040F804CBF7D25307E4E7000010B5114919
:1023B000114C8C4204D04FF482522046FFF7CAFFE2
:1023C0002046FFF75DFE0D490D48421A1CBF0D481F
:1023D000FFF7B0FF0C480D49091A18BF00F01EF8AE
:1023E0000B490C48421A04D0BDE810400A48FFF7D8
:1023F000A1BF10BD000000000000FF1F84240000EA
:10240000F02400001004FF1FB804FF1FA805FF1FE1
:1024100084250000C02500007C04FF1F002200F07E
:1024200001B80000401810F0030308D0C91A1FD3E8
:10243000DB0748BF00F8012D28BF20F8022D13004C
:1024400030B414461546103928BF20E93C00FAD8AC
:10245000490728BF20E90C0048BF40F8042D890037
:1024600028BF20F8022D48BF00F8012D30BC70476E
:10247000C91818BF00F8012DCB0728BF00F8012D9F
:1024800070470000008003400090034000800B4034
:10249000000000000000000000000000000000003C
:1024A00000B0034000B00B4000F00F4040F00F4080
:1024B00080F00F40C0F00F4000F10F40009004404A
:1024C00000A0044000B0044000C0044000D004401C
:1024D0000B1F00000009000000A0064000B00640ED
:1024E00000C0064000D0064000A00E4000B00E40E4
:1024F00080B5FFF79BFEFFF7C8FE044801780FF296
:102500001000BDE80440FEF791B9000004ED00E0C2
:102510000A2A2A2A2A64656661756C745F69737277
:1025200020656E7465726564206F6E2076656374D5
:102530006F722025642A2A2A2A2A0D0A0A0000001E
:1025400038B50E4D0E4C286840F478502860C820ED
:10255000FEF748FB60604FF47A7111FB00F02060D9
:10256000E968C1F30361491CB0FBF1F0A0604FF4CE
:102570009641BDE834400120FFF764BA388004403A
:102580009C05FF1F70B4090601F0706141EA0070FC
:10259000094C110501F470012568266808431904E7
:1025A00001F47021084346F47F0604492660086060
:1025B000256070BC704700BF00F0014044800440BB
:1025C00080B500F007F808484FF6FE720188114008
:1025D000018001BD054872B64CF2205101804DF6D4
:1025E0002811018062B67047002005400E2005408A
:1025F00010B5074979441831064C7C44163404E080
:10260000081D0A68511888470146A142F8D110BD3B
:10261000080000001C0000004FE9FFFFF000000070
:10262000B804FF1F04000000A805FF1F0000000001
:102630000120C046002801D0FFF7DAFF0020FFF795
:10264000B5FB00F000F800F001B80000074638467E
:1026500000F002F8FBE70000C046C046024A110045
:102660001820ABBEFBE700BF26000200FFF7A8FF63
:10267000FFF79CFEFFF764FFFFF798FBFEE7000003
:10268000C046C046C046C046FFF7D2FF0146012003
:04269000FFF766BA30
:040000050000268150
:00000001FF
