:10000000F8FF00201104000015750000156F0000B6
:1000100015750000157500001575000015750000B8
:1000200015750000157500001575000015750000A8
:1000300015750000157500001D6F0000136F00009E
:100040001575000015750000157500001575000088
:100050001575000015750000157500001575000078
:100060001575000015750000157500001575000068
:100070001575000015750000157500001575000058
:100080001575000015750000157500001575000048
:100090001575000015750000157500001575000038
:1000A0001575000015750000157500001575000028
:1000B0001575000015750000157500001575000018
:1000C0001575000015750000157500001575000008
:1000D00015750000157500001575000015750000F8
:1000E00015750000157500001575000015750000E8
:1000F000157500001575000015750000F16E000003
:1001000015750000157500001575000015750000C7
:1001100015750000157500001575000015750000B7
:1001200015750000157500001575000015750000A7
:100130001575000015750000D76F0000D96F00001D
:100140001575000015750000157500001575000087
:10015000494F000015750000157500001575000069
:100160001575000015750000157500001575000067
:100170001575000015750000157500001575000057
:100180001575000015750000157500001575000047
:100190001575000015750000157500001F6F000033
:1001A000676F00001575000015750000AD5A00005E
:1001B0001575000015750000157500001575000017
:1001C0001575000015750000157500001575000007
:1001D00015750000157500001575000015750000F7
:1001E00015750000157500001575000015750000E7
:10040000FFFFFFFFFFFFFFFFFFFFFFFFFEFFFFFFFD
:1004100062B64FF000004FF000014FF000024FF0C5
:1004200000034FF000044FF000054FF000064FF0BE
:1004300000074FF000084FF000094FF0000A4FF09E
:10044000000B4FF0000C04F083F9FEE7DFF800F03A
:10045000B105FF1FDFF800F06104FF1FDFF800F0B7
:10046000DD04FF1FDFF800F03904FF1F0821DFF86B
:10047000EC2B126852F48052DFF8E03B1A6000BFA8
:10048000DFF8D82B126832F40042DFF8D03B1A6054
:1004900000BF0A00511ED2B2002A25D0020608D59C
:1004A000DFF8B82B126852F48032DFF8B03B1A60E4
:1004B00007E0DFF8A82B126832F48032DFF89C3BAB
:1004C0001A60DFF8982B126852F40042DFF88C3B78
:1004D0001A6000BFDFF8842B126832F40042DFF8A4
:1004E0007C3B1A604000D4E7704700000821DFF829
:1004F0006C2B126832F48052DFF8603B1A60DFF830
:100500005C2B126832F40042DFF8503B1A600A009C
:10051000511ED2B2002A25D0020608D5DFF83C2BA6
:10052000126852F48032DFF8343B1A6007E0DFF8DB
:100530002C2B126832F48032DFF8203B1A60DFF88F
:100540001C2B126852F40042DFF8103B1A6000BF07
:10055000DFF8082B126832F40042DFF8003B1A6023
:100560004000D4E7704738B504000D00B5F15000E5
:10057000C0B2FFF7BBFFE4B2200950F01000C0B2D8
:10058000FFF7B4FF14F00F0050F00100C0B2FFF706
:10059000ADFF31BD70B5040000200500EDB2082D9F
:1005A00017D2B5F15000C0B2FFF7A0FF0120FFF74E
:1005B0009DFF1020FFF79AFF00200600F6B2802E64
:1005C00005D22000C0B2FFF751FF761CF6E76D1C84
:1005D000E4E770BD38B500200400E4B2082C16D260
:1005E000B4F15000C0B2FFF781FF0120FFF77EFF9A
:1005F0001020FFF77BFF00200500EDB2802D04D214
:100600000020FFF733FF6D1CF7E7641CE5E731BD01
:1006100080B2002809D043F2264211000A00511E80
:1006200092B2002AFAD1401EF2E7704780B5DFF897
:10063000C80B4FF480710160DFF8C00B4FF480717C
:100640000160DFF8BC0B4FF480710160DFF8B40B80
:100650004FF480710160DFF8B00B5FF4D8310160B6
:10066000DFF8F809006850F40040DFF8F01908607E
:10067000DFF8E809006830F40050DFF8E01908609E
:100680003220FFF7C5FFDFF8D409006850F40050AE
:10069000DFF8C8190860AE20FFF728FF0020FFF739
:1006A00025FF1020FFF722FF4020FFF71FFF8120CA
:1006B000FFF71CFFCF20FFF719FFA120FFF716FF60
:1006C000C820FFF713FFA620FFF710FFA820FFF7B1
:1006D0000DFF3F20FFF70AFFD320FFF707FF0020A1
:1006E000FFF704FFD520FFF701FF8020FFF7FEFE94
:1006F000D920FFF7FBFEF120FFF7F8FEDA20FFF725
:10070000F5FE1220FFF7F2FEDB20FFF7EFFE4020A0
:10071000FFF7ECFE2020FFF7E9FE0220FFF7E6FEE0
:100720008D20FFF7E3FE1420FFF7E0FEA420FFF783
:10073000DDFEA620FFF7DAFEAF20FFF7D7FE002090
:10074000FFF728FF00210020FFF70DFF01BD70B566
:1007500004000D002900C9B22000C0B2FFF703FF5A
:100760000120EDB2082195FBF1F202FB11529040FD
:100770000600EDB2E8085038C0B2FFF7B7FEE4B2A9
:10078000200950F01000C0B2FFF7B0FE14F00F00C7
:10079000FFF7ACFE3000C0B2FFF768FE70BD2DE978
:1007A000F84304000D00160000275FF000085FF01A
:1007B00000095FFA89F919F8060000282BD05FFAC2
:1007C00089F919F8060020380700E4B27F2C02D31B
:1007D000002004006D1C2900C9B22000C0B2FFF740
:1007E000C2FE002080465FFA88F8B8F1060F0ED2EC
:1007F0005FFA88F8FFB20620DFF8581B00FB0710ED
:1008000018F80000FFF732FE18F10108EBE7A41D0D
:1008100019F10109CDE7BDE8F1832DE9F8430400A2
:100820000D00160000275FF000085FF000095FFA76
:1008300089F919F80600002842D05FFA89F919F8F9
:10084000060020380700E4B2792C02D3002004000F
:100850006D1C2900C9B22000C0B2FFF784FE002041
:1008600080465FFA88F8B8F1080F0BD2FFB2380162
:1008700050FA88F0DFF8E01A405CFFF7F7FD18F156
:100880000108EEE7691CC9B22000C0B2FFF76BFE99
:10089000002080465FFA88F8B8F1080F0CD2FFB24A
:1008A000380150FA88F0DFF8B01A4018007AFFF7E4
:1008B000DDFD18F10108EDE7083419F10109B6E78B
:1008C000BDE8F1832DE9F84304000D001600002770
:1008D0005FF000085FF001095FFA88F818F8060079
:1008E000002800F08D800020070001208146FFB223
:1008F000DFF8680A385C80281DD3FFB2DFF85C0A95
:10090000385C5FFA88F818F80610884211D1FFB2F7
:10091000DFF8480A381840785FFA88F818EB0601C3
:100920004978884205D1FFB20E2017FB00F08146BE
:1009300001E0BF1CDBE7E4B2772C02D30020040007
:100940006D1C2900C9B22000C0B2FFF70CFE1FFACF
:1009500089F9B9F1010F2DD02900C9B22000C0B228
:10096000FFF701FE00200700FFB20E2F0BD21FFA87
:1009700089F9DFF8EC0919F80000FFF777FD19F1A4
:1009800001097F1CF0E7691CC9B22000C0B2FFF763
:10099000EAFD00200700FFB20E2F2DD21FFA89F9C1
:1009A000DFF8BC0919F80000FFF760FD19F1010933
:1009B0007F1CF0E718F101082900C9B22000C0B27D
:1009C000FFF7D1FD00200700FFB2102F04D2002056
:1009D000FFF74CFD7F1CF7E7691CC9B22000C0B2CD
:1009E000FFF7C1FD00200700FFB2102F04D2002046
:1009F000FFF73CFD7F1CF7E70E3418F102086BE7A8
:100A0000BDE8F183F8B504000D0016000027FFB221
:100A1000B85D00282AD0FFB2B85D802815D3FFB298
:100A2000B85D8DF80000FFB2B81940788DF801006C
:100A300000208DF8020000AA2900C9B22000C0B22F
:100A4000FFF740FF0E34BF1CE1E7FFB2B85D8DF841
:100A5000000000208DF8010000AA2900C9B2200082
:100A6000C0B2FFF7DAFE08347F1CD0E7F1BD80B5D5
:100A7000012303220021042001F0D2F901230322E3
:100A80000221042001F0CCF90123032204210420D7
:100A900001F0C6F9012303220621042001F0C0F968
:100AA00001BD10B500240021042001F059FA0028EE
:100AB00002D154F0010401E014F00E0402210420DC
:100AC00001F04EFA002802D154F0020401E014F0C3
:100AD0000D040421042001F043FA002802D154F04F
:100AE000040401E014F00B040621042001F038FA9C
:100AF000002802D154F0080401E014F00704002C8F
:100B000017D0022C1FD019D3042C26D020D3062CAA
:100B10002DD027D3082C34D02ED30A2C3BD035D35C
:100B20000C2C42D03CD30E2C49D043D30F2C4BD0AD
:100B30004FE0DFF8840D082101604AE0DFF8780D0E
:100B40000121016045E0DFF8700D0021016040E007
:100B5000DFF8640D022101603BE0DFF85C0D00214D
:100B6000016036E0DFF8500D0021016031E0DFF870
:100B7000480D002101602CE0DFF83C0D03210160ED
:100B800027E0DFF8340D0721016022E0DFF8280DAF
:100B9000002101601DE0DFF8200D0021016018E058
:100BA000DFF8140D0021016013E0DFF80C0D0621C1
:100BB00001600EE0DFF8000D0021016009E0DFF8C0
:100BC000F80C0521016004E0DFF8EC0C0421016061
:100BD000FFE7002010BD10B51321002001F0C0F97F
:100BE000002809D01121002001F0BAF9002803D013
:100BF000DFF8E80B01210170DFF8E00B0078002836
:100C000024D01321002001F0ABF900281CD11121C0
:100C1000002001F0A5F9002816D1DFF8700E007849
:100C2000002805D0DFF8B40B002101700220040079
:100C3000DFF8880C0078002808D0DFF8A00B00212E
:100C400001700120040001E00020040013210020B5
:100C500001F086F9DFF8641C08701121002001F012
:100C60007FF9DFF8281E08702000C0B210BD70B5F3
:100C700004000D001600E4B2002C0ED0022C1CD093
:100C800013D3042C29D020D3062C36D02DD3082CF6
:100C900043D03AD3092C48D04EE087A23100C9B2E4
:100CA0002800C0B2FFF77BFD46E084A23100C9B244
:100CB0002800C0B2FFF773FD3EE081A23100C9B247
:100CC0002800C0B2FFF76BFD36E07EA23100C9B24A
:100CD0002800C0B2FFF763FD2EE07BA23100C9B24D
:100CE0002800C0B2FFF75BFD26E0D7A23100C9B2F1
:100CF0002800C0B2FFF753FD1EE0D4A23100C9B2F4
:100D00002800C0B2FFF74BFD16E0D1A23100C9B2F6
:100D10002800C0B2FFF743FD0EE0CEA23100C9B2F9
:100D20002800C0B2FFF73BFD06E0CBA23100C9B2FC
:100D30002800C0B2FFF733FD70BD2DE9F047040075
:100D40000D00160000275FF000085FF00009DFF8D3
:100D50007C0C210001F01EF901F088F98246642024
:100D60009AFBF0F00700642000FB17A00A2190FB1B
:100D7000F1F080460A209AFBF0F100FB11A08146B9
:100D80003200D2B22900C9B23800C0B2FFF76FFFFB
:100D90003200D2B2A91DC9B24046C0B2FFF767FF08
:100DA000AFA23100C9B215F10C00C0B2FFF7F7FCD9
:100DB0003200D2B215F11201C9B24846C0B2FFF7F3
:100DC00056FFBDE8F0872DE9F84304000D0000262A
:100DD00000275FF000085FF00009DFF8000E0068F0
:100DE000B0F5487F0BDB01220821002001F07BFADF
:100DF000DFF8DC1B0860DFF8E40D00210160DFF89C
:100E0000D00B00684FF47A7190FBF1F00600DFF828
:100E1000C00B00684FF47A7101FB1600642190FB4F
:100E2000F1F00700DFF8A80B00684FF47A7101FBBE
:100E30001600642101FB17000A2190FBF1F08046A7
:100E4000DFF88C0B00684FF47A7101FB1600642107
:100E500001FB17000A2190FBF1F201FB1200814611
:100E60002A00D2B22100C9B23000C0B2FFF7FFFEA3
:100E70002A00D2B2A11DC9B23800C0B2FFF7F7FEF6
:100E80002A00D2B214F10C01C9B24046C0B2FFF739
:100E9000EEFE2A00D2B214F11201C9B24846C0B225
:100EA000FFF7E5FEDFF8340D0068401CDFF82C1D6D
:100EB0000860BDE8F1830000300000003100000050
:100EC000320000003300000034000000012801DA85
:100ED0000123180000231900814209DA00231A00B7
:100EE0004DF2A2039A4201DA521CF9E7491CF3E7DA
:100EF00070472DE9F04782B000241025DFF8B809CB
:100F0000006810F1800600275FF0000800A80021AB
:100F1000016000A8814600200400A4B2ADB2AC423A
:100F200080F09080A4B2032C2BD14B4603223900D1
:100F300089B29620FFF78AFA99F8000001F074FA56
:100F4000824699F8010001F06FFADFF8801A01F08B
:100F500021F80100504601F077FA824699F8020024
:100F600001F062FADFF8641A01F0B0FA01005046AD
:100F700001F06AFA8046A4B2DFF8640C40F82480DD
:100F80005EE0A4B20F2C2CD14B46032217F11001C6
:100F900089B29620FFF75AFA99F8000001F044FA56
:100FA000824699F8010001F03FFADFF8201A00F0BC
:100FB000F1FF0100504601F047FA824699F802001D
:100FC00001F032FADFF8041A01F080FA010050460D
:100FD00001F03AFA8046A4B2DFF8040C40F824800D
:100FE0002EE04B460322A4B2200110FA87F189B209
:100FF000300080B2FFF72AFA99F8000001F014FAE5
:10100000824699F8010001F00FFADFF8C01900F0EC
:10101000C1FF0100504601F017FA824699F802001C
:1010200001F002FADFF8A41901F050FA010050466D
:1010300001F00AFA8046A4B2DFF8A40B40F824803D
:10104000641C6AE7BDE8F387350000003600000045
:1010500037000000380000003900000000F00F40A9
:101060002E0000002DE9F84310240025DFF8480881
:10107000006810F1800600275FF0000800A800213A
:10108000016000A88146300080B2FFF7E3F99620A6
:10109000FFF7E0F900200500ADB2A4B2A54280F050
:1010A000A880ADB2032D33D1ADB2DFF8340B50F8C8
:1010B00025008046404600F0D9FF0A2190FBF1F25E
:1010C00001FB12008DF800004046DFF8641C01F0BF
:1010D000FDF900F0CBFF0A2190FBF1F201FB1200B9
:1010E0008DF80100DFF8480C414600F053FF00F096
:1010F000BDFF0A2190FBF1F201FB12008DF8020006
:101100004B460322390089B29620FFF7A7F96EE01B
:10111000ADB20F2D34D1ADB2DFF8C40A50F82500BE
:101120008046404600F0A2FF0A2190FBF1F201FB4D
:1011300012008DF800004046DFF8F41B01F0C6F9FC
:1011400000F094FF0A2190FBF1F201FB12008DF8F0
:101150000100DFF8DC0B414600F01CFF00F086FFC9
:101160000A2190FBF1F201FB12008DF802004B46C0
:10117000032217F1100189B29620FFF76FF936E0CC
:10118000ADB2DFF85C0A50F825008046404600F01A
:101190006DFF0A2190FBF1F201FB12008DF80000B7
:1011A0004046DFF88C1B01F091F900F05FFF0A2147
:1011B00090FBF1F201FB12008DF80100DFF8700BDB
:1011C000414600F0E7FE00F051FF0A2190FBF1F2EA
:1011D00001FB12008DF802004B460322ADB228013C
:1011E00010FA87F189B2300080B2FFF737F96D1C31
:1011F00052E7BDE8F18300003C9004404090044079
:10120000349004403090044014F00F4080B5FFF754
:1012100029F9FFF70BFA0821002000F049FF01230C
:1012200013220721032000F0FBFD012313220621D6
:10123000032000F0F5FD012313221321002000F00C
:10124000EFFD012313221121002000F0E9FD01230D
:1012500013221521012000F0E3FD01BD70B5DFF878
:10126000D42A00210420FFF7CDFB01216420FFF7E1
:10127000AAFDDFF8C42A02210420FFF7C3FBDFF830
:10128000BC2A04210420FFF7BDFBDFF8B42A0721A4
:101290000620FFF784FA072244210D001600DFF82C
:1012A0001806006801F0B6F832002900FFF745FD86
:1012B000DFF8900A0068000110F10801C9B20220AD
:1012C000FFF745FAFFF787FC0400002C2DD0022C15
:1012D0000BD1DFF8700A0068401CDFF8681A08605C
:1012E0000A20FFF7F3FDFFF775F9012C0BD1DFF8AA
:1012F000540A0068401EDFF84C1A08600A20FFF705
:10130000E5FDFFF767F9DFF83C0A0068032803D121
:10131000DFF8300A01210160DFF8280A00680028A0
:1013200003D1DFF8200A022101600721032000F029
:1013300017FE00280CD1FFF7DCFDC820FFF7C6FD23
:10134000FFF748F9DFF8000ADFF8F81909680170BB
:1013500070BD0000CC6800006041000018740000FF
:10136000146D000038B5DFF8E4090068C000401EC5
:101370000500DFF8D8090068092874DBDFF8D00918
:101380000068012805D1FFF725F9DFF8C40900211D
:101390000160403DDFF8BC2900210620FFF7FFF97E
:1013A00000224421DFF83808006AFFF7C6FCDFF8A6
:1013B000A82901210620FFF7F2F901224421DFF8D4
:1013C0002008406AFFF7B9FCDFF8902902210620C7
:1013D000FFF7E5F902224421DFF80408806AFFF7ED
:1013E000ACFCDFF87C2903210620FFF7D8F90322A3
:1013F0004421DFF8EC07C06AFFF79FFCDFF864299F
:1014000004210620FFF7CBF904224421DFF8D0079E
:10141000006BFFF792FCDFF8502905210620FFF74B
:10142000BEF905224421DFF8B807406BFFF785FCC1
:10143000DFF8382906210620FFF7B1F906224421FA
:10144000DFF89C07806BFFF778FCDFF82429072181
:101450000620FFF7A4F907224421DFF88407C06BB8
:10146000FFF76BFC72E0DFF8E8080068002805D1A0
:10147000FFF7B0F8DFF8D80801210160DFF8F428A1
:1014800000210620FFF78BF900224421DFF85007E6
:101490000068FFF752FCDFF8E02801210620FFF783
:1014A0007EF901224421DFF838074068FFF745FC48
:1014B000DFF8C82802210620FFF771F90222442133
:1014C000DFF81C078068FFF738FCDFF8B428032139
:1014D0000620FFF764F903224421DFF80407C068FF
:1014E000FFF72BFCDFF89C2804210620FFF757F9B3
:1014F00004224421DFF8E8060069FFF71EFCDFF84C
:10150000882805210620FFF74AF905224421DFF843
:10151000D0064069FFF711FCDFF87028062106208D
:10152000FFF73DF906224421DFF8B4068069FFF792
:1015300004FCDFF85C2807210620FFF730F90722BA
:101540004421DFF89C06C069FFF7F7FB172D01D196
:10155000182005002900C9B20120FFF7F8F8FFF7AD
:101560003AFB0400DFF82C080068002830D1002C7A
:1015700076D0022C0BD1DFF8D4070068401CDFF8CE
:10158000CC1708600A20FFF7A1FCFFF723F8012C15
:101590000BD1DFF8B8070068401EDFF8B01708600D
:1015A0000A20FFF793FCFFF715F8DFF8A0070068A3
:1015B000112803D1DFF8940701210160DFF88C07BF
:1015C000006800284CD1DFF884071021016047E053
:1015D000002C45D0022C20D1DFF870070068DFF81E
:1015E000001611EB800050F8040C00F0EDFFDFF85E
:1015F000A827DFF8A83701F00FF801F081F8DFF82D
:101600004C170968DFF8D82512EB810141F8040C6A
:101610000A20FFF75BFCFEF7DDFF012C20D1DFF88D
:101620002C070068DFF8B81511EB800050F8040CA7
:1016300000F0CAFFDFF86027DFF8643700F0ECFF46
:1016400001F05EF8DFF804170968DFF8942512EB63
:10165000810141F8040C0A20FFF738FCFEF7BAFFBD
:101660000621032000F07CFC002840F0A580DFF874
:1016700024070068002840F09680FFF7F3FCDFF8AD
:101680002407DFF85C1509680160DFF8540540683D
:10169000DFF814170860DFF848058068DFF80C17DA
:1016A0000860DFF83C05C168DFF8040700F072FC51
:1016B000DFF800170860DFF828050069DFF8F81682
:1016C0000860DFF81C054069DFF8F0160860DFF8F5
:1016D00010058169BD4800F05DFCDFF8E416086084
:1016E000DFF8FC04C169B94800F054FC00F0BEFC0E
:1016F0000A2190FBF1F201FB1200DFF8C816086026
:10170000DFF8DC04006ADFF8C0160860DFF8D004F8
:10171000406ADFF8B8160860DFF8C404816AAB4895
:1017200000F038FCDFF8A8160860DFF8B404C16ADE
:10173000A64800F02FFC00F099FCDFF8981608602E
:10174000DFF89C04006BDFF890160860DFF8900467
:10175000406BDFF888160860DFF88404816B9B48D3
:1017600000F018FC00F082FCDFF874160860DFF867
:101770007004C16B954800F00DFC00F077FC0A2165
:1017800090FBF1F201FB1200DFF858160860FEF73B
:1017900021FFC820FFF79AFBDFF8AC05002101709C
:1017A000FEF718FF08E06420FFF790FBDFF8E40580
:1017B00000210160FEF70EFF0721032000F0D0FB9F
:1017C00000280AD16420FFF781FBDFF8C80501215A
:1017D0000160FEF7FFFEFFF745FC31BD200AFF1F49
:1017E00010B5DFF8042602210420FFF70BF9DFF81B
:1017F000FC2504210420FFF705F9DFF8F405006853
:10180000000110F10801C9B20220FEF7A0FFFFF7A6
:10181000E2F90400002C2DD0022C0BD1DFF8D0050A
:101820000068401CDFF8C81508600A20FFF74EFB6F
:10183000FEF7D0FE012C0BD1DFF8B4050068401E86
:10184000DFF8AC1508600A20FFF740FBFEF7C2FE88
:10185000DFF89C050068032803D1DFF89405012117
:101860000160DFF88C050068002803D1DFF88005EF
:10187000022101600721032000F072FB002819D12A
:10188000FFF737FBDFF868050068012809D16420FD
:10189000FFF71CFBDFF8B00404210170FEF79AFE8D
:1018A00008E06420FFF712FBDFF89C0405210170BB
:1018B000FEF790FE10BD00009809FF1F1E0AFF1FD3
:1018C00010B5DFF8302502210620FEF768FFDFF8AB
:1018D000282503210620FEF762FFDFF820250421DA
:1018E0000620FEF75CFFDFF8182505210620FEF72D
:1018F00056FFDFF8102506210620FEF750FFDFF81F
:1019000008050068C00010F11001C9B20120FEF7FF
:101910001EFFFFF760F90400DFF8F00400680028FC
:101920002FD1002C2DD0022C0BD1DFF8DC04006865
:10193000401CDFF8D41408600A20FFF7C7FAFEF74E
:1019400049FE012C0BD1DFF8C0040068401EDFF80F
:10195000B81408600A20FFF7B9FAFEF73BFEDFF87B
:10196000A8040068062803D1DFF89C040121016067
:10197000DFF894040068002803D1DFF88C04052107
:101980000160DFF88C04002101600621032000F0D3
:10199000E7FA002808D1DFF8B00300210170FEF754
:1019A00019FE6420FFF792FA0721032000F0D8FA0D
:1019B00000280AD1FEF70EFE6420FFF787FADFF851
:1019C0005004DFF844140968016010BD0000204194
:1019D0008409FF1F2DE9F843002410252C480068D6
:1019E00010F1800600275FF0000800A800210160C8
:1019F00000A88146DFF818040068002843D00020C2
:101A00000400A4B2ADB2AC4235D2A4B2744850F8CE
:101A100024008046404600F029FB0A2190FBF1F2A9
:101A200001FB12008DF800004046C14900F04EFD58
:101A300000F01CFB0A2190FBF1F201FB12008DF873
:101A40000100BB48414600F0A5FA00F00FFB0A2157
:101A500090FBF1F201FB12008DF802004B460322CD
:101A6000A4B2200110FA87F189B2300080B2FEF7EB
:101A7000F5FC641CC5E76420FFF728FAB248002192
:101A80000170FEF7A7FDBDE8F18300001F0AFF1FEC
:101A90009809FF1F2DE9F04782B000241025DFF8D8
:101AA0007403006810F1800600275FF0000800A8AA
:101AB0000021016000A88146D5480068002800F098
:101AC0008A8000200400A4B2ADB2AC422DD24B46B5
:101AD0000322A4B2600110FA87F189B2300080B20B
:101AE000FEF7B4FC99F8000000F09EFC824699F8DD
:101AF000010000F099FC8E4900F04CFA01005046BC
:101B000000F0A2FC824699F8020000F08DFC8849A2
:101B100000F0DCFC0100504600F096FC8046A4B2C8
:101B20002F4840F82480641CCDE7924A0221062009
:101B3000FEF735FE0222442129480068FFF7FDF830
:101B40008D4A03210620FEF72AFE03224421244861
:101B50004068FFF7F2F88D4A04210620FEF71FFEC9
:101B6000042244211E488068FFF7E7F8834A0521D4
:101B70000620FEF714FE052244211948C068FFF72D
:101B8000DCF8A54A06210620FEF709FE06224421BC
:101B900013480069FFF7D1F80621032000F0E0F9AF
:101BA000002808D1684800210170FEF713FD642069
:101BB000FFF78CF90FE00721032000F0D1F900288E
:101BC000B3D1FFF74FFA604800210170FEF702FD24
:101BD0006420FFF77BF9BDE8F38700009C09FF1F35
:101BE000C006FF1F80B5FFF711FBFF20FEF7D2FCF8
:101BF000C820FFF76BF90020FEF7CCFCC820FFF7E8
:101C000065F9FFF776F950480078002801D1FFF711
:101C100025FB4D48007801286AD162487F49096850
:101C200001607E484068604908607C4880685F4980
:101C300008607A48C1685E4800F0ACF95D49086008
:101C4000764800695C490860744840695B490860EF
:101C500072488169364800F09DF9594908606F481B
:101C6000C169334800F096F900F000FA0A2190FBB0
:101C7000F1F201FB1200534908606848006A5249BA
:101C800008606648406A514908606448816A28488B
:101C900000F080F94E4908606048C16A244800F0AD
:101CA00079F900F0E3F94B4908605C48006B4A4958
:101CB00008605A48406B494908605848816B1C4885
:101CC00000F068F900F0D2F9454908605348C16B4B
:101CD000174800F05FF900F0C9F90A2190FBF1F212
:101CE00001FB12003F4908600020FEF753FC1DE095
:101CF00015480078022801D1FFF734FB124800781C
:101D0000032801D1FFF76CFD0F480078042803D1A8
:101D1000FFF7D6FDFFF7BEFE0B48007805287FF4DD
:101D200072AFFFF7CDFDFFF755FE6CE701BD000078
:101D300000002041587900002C780000387800001D
:101D4000447800000007FF1F210AFF1F0407FF1F40
:101D5000A009FF1F507800005C7800006878000040
:101D600074780000807800008C780000987800007B
:101D7000A4780000B0780000BC780000C8780000AB
:101D8000D4780000E0780000EC780000F8780000DB
:101D900004790000A409FF1F9A9999999999B93F6C
:101DA0009999B9BF4406FF1F4806FF1F2407FF1F6C
:101DB0000000C842B406FF1F6806FF1F6C06FF1F25
:101DC0001007FF1FD809FF1F2807FF1F5006FF1F1E
:101DD0007806FF1F7C06FF1F8006FF1F8406FF1F7B
:101DE0008806FF1FDC09FF1F60790000687900008A
:101DF0000807FF1F707900007879000080790000E3
:101E000088790000907900000C07FF1FAC09FF1FC4
:101E1000A809FF1F9809FF1F10790000C006FF1FC7
:101E2000F8B504000D0016001F00EDB2202D02D2FF
:101E3000FFB2022F03D32421534800F0A9FCEDB2D6
:101E4000E4B2524850F82400F6B256F4807140F8DB
:101E50002510F00705D5F6B2032E02D0F6B2132EE8
:101E60000DD1E4B24A4850F8240040690121A9404C
:101E70008843E4B2464951F8241048612AE0E4B2AC
:101E8000434850F8240040690121A9400843E4B2C6
:101E90003F4951F824104861FFB2012F0DD1E4B23F
:101EA0003B4850F8240000680121A9400843E4B2EF
:101EB000374951F8241008600CE0E4B2344850F877
:101EC000240000680121A9408843E4B2304951F858
:101ED00024100860F1BD70B504000D001600EDB2CD
:101EE000202D02D2F6B2022E03D34B21264800F059
:101EF0004FFCF6B2012E0DD1E4B2254850F8240073
:101F000000680121A9400843E4B2214951F8241096
:101F100008600CE0E4B21E4850F82400006801217B
:101F2000A9408843E4B21A4951F82410086070BDF2
:101F300038B504000D00EDB2202D03D36021124806
:101F400000F026FCE4B2124850F824000068012199
:101F5000A9404840E4B20E4951F82410086031BD50
:101F600038B504000D00EDB2202D03D371210648D1
:101F700000F00EFCE4B2064850F824000069E84086
:101F800010F0010032BD0000B0720000A006FF1F7B
:101F90008C06FF1FFF2212EAD05C1DBF12EAD1534C
:101FA000944593422BE09C44D30780EA01021A40F7
:101FB00043EA002043EA0121A1FB0030410038BF81
:101FC00040007CF17F010BDBFE294ADA5B0842EA24
:101FD000C15153EA006373F1004C51EB102070477C
:101FE000D1F1080CDCF120012FDB5B0810FA01F1C4
:101FF0000B4373F1004120FA0CF0504170479445B7
:102000001CBF02EAD153934280EA010202F000426F
:102010001DD0400019D0490017D05BB9634514D0DA
:102020000902B1FA81F39940BCEB030CC00140F006
:102030000040C1E70002B0FA80FC10FA0CF0B3EBEC
:102040000C0CC90141F00041B6E710007047400098
:102050000AD0490008D010F1807F94BF11F1807F31
:1020600002E042F0FF407047D04370474100090E44
:102070007F3915D4D1F11F0114D4400007D2C0011B
:1020800040F00040C84048BF6FF000407047C001BA
:1020900040F00040C8404CBF4FF000404042704705
:1020A0000020704700424FF0004058BFC0437047C7
:1020B00038B504000D00E4B2002C05D1EDB2082DB6
:1020C00002D3EDB2132D0DD3E4B2012C05D1EDB244
:1020D000042D02D3EDB2122D04D32221DFF8CC025D
:1020E00000F056FBE4B2002C03D0012C00F08280FB
:1020F000F8E0DFF8BC02006850F00060DFF8B012D2
:102100000860DFF8B002006830F09000DFF8A41239
:102110000860DFF8A00200210160EDB22800083855
:1021200001280CD9801E01281BD9801E01282AD91C
:10213000801E012839D9C01E012848D958E0DFF88F
:102140007802006850F48060DFF86C120860EDB22D
:10215000A80000F1804010F59420002140F8201CD8
:1021600047E0DFF85402006850F40070DFF84812CE
:102170000860EDB2A80000F1804010F59220002127
:1021800040F80C1C35E0DFF83002006850F4806045
:10219000DFF824120860EDB2A80000F1804010F5CD
:1021A0009420002140F8281C23E0DFF80C0200688E
:1021B00050F40060DFF800120860EDB2A80000F1F2
:1021C000804010F59620002140F8381C11E0DFF81F
:1021D000E801006850F40050DFF8DC110860EDB24F
:1021E000A80000F1804010F59A200021C16100E0B4
:1021F00078E077E0DFF8C401006850F00060DFF8B5
:10220000BC110860DFF8AC01006830F41040DFF862
:10221000A4110860DFF89C0100210160EDB22800E4
:10222000001F03280BD9001F01281AD9801E03287C
:1022300029D9001F012838D9C01E46D051E0DFF847
:102240007801006850F40050DFF86C110860EDB2BE
:10225000A80000F1804010F59A20002140F8101CE1
:102260003FE0DFF85401006850F48060DFF8481167
:102270000860EDB2A80000F1804010F59420002124
:1022800040F8201C2DE0DFF83001006850F4806039
:10229000DFF824110860EDB2A80000F1804010F5CD
:1022A0009420002140F8181C1BE04348006850F4BB
:1022B000806041490860EDB2A80000F1804010F54F
:1022C0009420002140F8181C0BE03B48006850F4B3
:1022D000007039490860EDB23948002140F82510F6
:1022E000FFE7FFE731BDF8B504000D001600002739
:1022F000E4B2002C05D1EDB2082D02D3EDB2132DBE
:102300000CD3E4B2012C05D1EDB2042D02D3EDB211
:10231000122D03D38721254800F03AFA3200D2B2B9
:102320002900C9B22000C0B200F01CF8E4B2254870
:1023300050F8240000680006F8D5E4B2214850F8AF
:10234000240000690700E4B21E4850F82400006829
:1023500030F08000E4B21B4951F8241008603800C6
:1023600080B2F2BD70B504000D00160015F01F001C
:1023700050F0400014490872B00010F00C0050F00A
:102380005000114908701048042141700E4841F274
:10239000342141800C4845F2786181800A49E4B2D9
:1023A000084850F8240000F011F870BD14730000C4
:1023B0003C80044018800440388004403080044051
:1023C000009004403C06FF1F4407FF1F0A7882600C
:1023D0004A78C2604A8882618A88C2618A790262C8
:1023E000CA794262CA6802650A7A02604A7A426021
:1023F000704750F8041B61B150F8042BD30744BF59
:10240000A9F101039A18002342F8043B091FFAD1ED
:10241000EFE77047002840F10980F446404200F0A1
:1024200005F850F000406047002800BF0AD0B0FA1D
:1024300080F18840D1F19D01C905020672F1004288
:1024400041EB10207047000090EA010F44BF81F07B
:10245000004100F0B3B900BF421A3CBF801A89188E
:102460004FF0004CC0F3C752FF2A24D0C1F3C7532A
:1024700013B3D21AD2F1190327DD4CEA01214CFA29
:1024800003F321EA0303D140C20D4CEA00204018B7
:1024900034BF20EA0C004CEA5000D20553EA006336
:1024A00073EB0C0C52EB1020420012F1807F38BF0E
:1024B0007047C00DC0057047490212BF9A4200EB39
:1024C0005120F8E7D2F11703D9D5704710B5FF2393
:1024D00013EAD0541DBF13EAD1529C429A4239E00C
:1024E000A41ADA0780EA0103134042EA012142EA12
:1024F0000020421A3CBF641E01EB4202090AB2FBF3
:10250000F1FE01FB1E221202B2FBF1F001FB1022D0
:102510006EF30F201202B2FBF1FE4EEA00207F3470
:1025200006DDFE2C24DA53EA500050EBC45010BDF7
:10253000D4F1020401FB1E2240F08071192C1DDC35
:1025400021FA04F0C4F12004A140114371F10042CA
:10255000584110BD9C421ABF03EAD1529A420FE083
:1025600080EA010E0EF00043400004D0490016D16D
:1025700043F0FF4010BD490008BFD343180010BD11
:102580009C4205D1D21AF7D001F00041484010BD5D
:102590004A0212BF0846484000F0004010BD4AB948
:1025A0000902B1FA81F2914044B1A418C00140F08F
:1025B00000409EE7C90141F0004152420002B0FADA
:1025C00080F4A040141B94E75FF0FF0C1CEAD0518C
:1025D00014BF614506E0C110400721F0E04101F160
:1025E0006051704779B900F0004100020AD0B0FA9A
:1025F00080FC00FA0CF001F16051A1EB0C5101EBF1
:10260000D0214005704741020CBF40F4E0016FF05B
:10261000000100207047000070B44FF0004591EABF
:10262000030C44BF6B4000F03FB900BF841A71EB4C
:10263000030603D2001BB141121973414FF4001C71
:102640001CEB410F34BF7CEB430443E00C0DA4EBC7
:102650001356352E50DC45EAC323DB0A45EAC12177
:10266000C912B6F120050DDD63FA05F6EB4086EAE6
:102670000305124218BF45F00105C01851F10001D1
:102680000CD213E062FA06F5F2405540F3415A408D
:10269000B340F3405A408018594107D349085FEAD4
:1026A00030005FEA350528BF45F0010501F58011CE
:1026B000420875F1004250F1000041EB045170BC3A
:1026C0004FF4001C1CEB410F38BF70470020090D70
:1026D000090570471CEB410F10D252EA43060BD09C
:1026E000BCEB410F05D80C0DAB43661E342EB5DD97
:1026F00002E0AB438018594170BC704770BC704712
:102700004FEAF17CBCF1E04C2CBFBCF5001F11E09E
:102710005FEA4C0C34BFBCF17F5F2EE05FEA9C0C9B
:102720004FEA0C1C4FEA3C0CC10071F100414CEB2C
:1027300050707047C90241EA5051C00218BF41F0C1
:10274000010141F000414FEA6C50C0F1090021281D
:1027500010D240EACC7CCCF1200C11FA0CF070F1D4
:102760000040CCF1200C21FA0CF00CF0004C40EBB6
:102770000C0070474FEACC707047490011F5001FFC
:1027800004D84FEACC10FF30C0057047C817704717
:1027900004000D0000F03EF92A002100024800F07C
:1027A00034FC00F068F9F7E77071000090EA010F5F
:1027B00044BF81F00041FFF74FBE00BF431A4FF006
:1027C00000423EBF5340C01AC91800BFD3095FEA98
:1027D000D05C13EB400F34BFB3EB410F40E07CEB18
:1027E000D1530CD342EA012122D8D1EB402009D3A6
:1027F000400A28BF5FEA500140EBCC507047401AB6
:1028000015D04002B0FA80F2521C9040400A4FEAC4
:102810003C23B3EB026384BF00EB730007E040F49A
:1028200000001A16DB07C2F10102D04018437047BE
:10283000182BFCDC31FA03F202FA03F3591A38BF01
:1028400042F00102D2EB40203CBF4000ACF1010C51
:102850005FEACC5CC20572F100414CEB502070473E
:1028600013EB400F0FD24B0009D0ACEBD153022B2E
:1028700003DB4902172BDDDD70479143401A43000B
:10288000D5D10020704713EB410FD0D36FF000007B
:102890007047000070B44FF0004591EA030F44BF49
:1028A0006B40FFF7C3BE00BF841A71EB030604D26E
:1028B0006E40001BB141121973414FF4001C1CEB18
:1028C000410F34BF7CEB430684E00C0DA4EB1356A0
:1028D000362E7DDC012E43DC45EAC32343EA525306
:1028E00012BFD20292025B08240545EAC12141EAE7
:1028F0005051D2EBC020994125D407D1B0FA80F6CF
:1029000010FA06F164D00020203608E0B1FA81F612
:10291000B140C6F1200220FA02F21143B0404FEA62
:10292000F474B4EB465434F001064FEA74040AD848
:10293000D6F50016760D04F00044F04061FA06F278
:102940005040F1404840C00A40EA415021F0004167
:1029500028BF5FEA500550F1000044EBD12137E079
:1029600045EAC323DB0A45EAC121C90AB6F12005BD
:102970000EDD42EA0242120CC5F1200603FA06F609
:10298000EB4042EA06056D42984161F100010DE01D
:1029900062FA06F5F240554063FA06FC82EA0C0240
:1029A000F3405A406D42904161EB030111F4801FE6
:1029B00005D1641E620502D06D004041494121F4F9
:1029C0008011430875F1004350F1000041EB0451C0
:1029D00070BC70471CEB410F15D223F0004352EA44
:1029E00043060BD04FEA4C0CBCEB410F04D80C0D46
:1029F000661E342EB7DDEBE7801A994150EA410696
:102A000008BF0021E4E708BF1CEB430F28BF6FF0AD
:102A10000001DDE780B5012301220C210320FFF72F
:102A2000FFF9012301220D210320FFF7F9F901230A
:102A300001220E210320FFF7F3F9012301220F21C8
:102A40000320FFF7EDF901BD224AD2681268012385
:102A500083409A43C9B211F0010383401A431D4BCE
:102A6000DB681A60704710B504002100C9B203206A
:102A7000FFF75EFA10BD10B5012301220C210320DF
:102A8000FFF7CEF9012301220D210320FFF7C8F93A
:102A9000012301220E210320FFF7C2F901230122A5
:102AA0000F210320FFF7BCF90C200400E4B2102C26
:102AB0000ED200212000C0B2FFF7C6FF642000F054
:102AC000BFFA01212000C0B2FFF7BEFF641CEDE792
:102AD00010BD00008C06FF1F70B504000D0016002D
:102AE0003068012802D0022805D00AE02000C0B2D8
:102AF0007168884705E0B0680470B068401CB06039
:102B0000FFE72868401C286070BD2DE9F0470400ED
:102B10005FF0000A5046A1465FF0000A89F800A065
:102B200019F10109002A1FD0D1F800A05546002D47
:102B300005D15FF0300A89F800A0401C38E0002D74
:102B400036D095FBF3FA564603FB165A5746002F2C
:102B500002D5FF43313700E03037350089F8007087
:102B600019F10109401CEAE7D1F800A0D446BCF1F4
:102B7000000F05D15FF0300A89F800A0401C17E073
:102B8000BCF1000F14D0BCFBF3FAD64603FB1ECAFF
:102B9000D046B8F10A0F02D218F1300801E018F15E
:102BA0003708F44689F8008019F10109401CE7E76D
:102BB000BDE8F0872DE9F04104000D0016001F006C
:102BC000A046A84507DA3A0031003020FFF784FF1D
:102BD00018F10108F5E7BDE8F0812DE9F0410400A6
:102BE0000D0016001F00A046A84507DA3A00310084
:102BF0002020FFF771FF18F10108F5E7BDE8F0812B
:102C00002DE9F24F92B004001500002000901298B8
:102C100083469BF800000590002800F0F28105989B
:102C2000252813D005980A2805D0220000A9059868
:102C3000FFF752FF09E0220000A90D20FFF74CFF2B
:102C4000220000A90A20FFF747FFD7E100208146B4
:102C5000002003900398002822D11BF1010B9BF860
:102C6000000020280ED0232812D02B2807D02D2892
:102C700002D0302809D00EE059F00109EAE759F0F6
:102C80000209E7E759F00409E4E759F00809E1E728
:102C900059F01009DEE7BBF1010B01200390D9E7E1
:102CA00000208246002003900398002813D11BF1D6
:102CB000010B9BF8000005903038092806D80A203F
:102CC000059900FB0A10B0F1300AEDE7BBF1010BEA
:102CD00001200390E8E71BF1010B9BF800002E2870
:102CE00011D100200390039800280ED11BF1010B95
:102CF0009BF800003038092800D8F4E7BBF1010B3D
:102D000001200390EFE7BBF1010B1BF1010B9BF8D6
:102D100000004C2806D0682802D06C2801D002E0C0
:102D200003E002E001E0BBF1010B1BF1010B9BF89A
:102D300000000590582875D0622800F0D5806328DF
:102D400000F01D81642813D0692811D06E2800F08E
:102D500049816F2800F0BD80702800F0D080732872
:102D600000F01681752800F0D58078285AD040E10F
:102D7000286806902D1D0A23012206A909A8FFF73D
:102D8000C4FE070009A8381806000698002803D5D5
:102D90002D2002907F1C0FE05FEA897003D52B2065
:102DA00002907F1C08E05FEA497003D52020029062
:102DB0007F1C01E000200290002004905FEA09706F
:102DC00011D50298002804D0220000A90298FFF72C
:102DD00083FE01200490230000AA51463800FFF72B
:102DE000E9FE574612E05FEAC9700FD4230000AA3B
:102DF00051463800FFF7F1FE0298002804D0220067
:102E000000A90298FFF768FE0120049004980028AA
:102E100007D10298002804D0220000A90298FFF7E9
:102E20005BFE98E0286801902D1D1023002201A967
:102E300009A8FFF76AFE070009A838180600002055
:102E400004905FEA097016D55FEAC9600BD52200CD
:102E500000A93020FFF740FE220000A97820FFF7EC
:102E60003BFE01200490230000AA51463800FFF7E2
:102E7000A1FE57461BE05FEAC97018D45FEAC9603B
:102E800000D5BF1C230000AA51463800FFF7A5FE5D
:102E90005FEAC9600BD5220000A93020FFF71CFEB5
:102EA000220000A97820FFF717FE012004905FEAB6
:102EB000C9600DD5049800280AD1220000A930204D
:102EC000FFF70AFE220000A97820FFF705FEBF1CCD
:102ED00041E0286801902D1D0823002201A909A8BE
:102EE000FFF713FE07001FE0286801902D1D022345
:102EF000002201A909A8FFF708FE070014E02868CE
:102F000001902D1D1023002201A909A8FFF7FDFD46
:102F1000070009E0286801902D1D0A23002201A95D
:102F200009A8FFF7F2FD070009A8381806005FEAB4
:102F3000097007D5230000AA51463800FFF73AFE72
:102F4000574608E05FEAC97005D4230000AA51463D
:102F50003800FFF742FE3078002806D0220000A992
:102F60003078FFF7B9FD761EF5E75FEAC97005D541
:102F7000230000AA51463800FFF72FFE3EE02878D4
:102F800007902D1D220000A90798FFF7A5FD35E049
:102F9000286880462D1DB8F1000F22D0404600F071
:102FA00061F807005FEAC97005D4230000AA514602
:102FB0003800FFF712FE98F80000002808D0220021
:102FC00000A998F80000FFF787FD18F10108F2E763
:102FD0005FEAC97005D5230000AA51463800FFF703
:102FE000FCFD0BE0286808902D1D089800990160F1
:102FF00004E0220000A90598FFF76EFD1BF1010B0C
:1030000007E6009813B0BDE8F08F0EB47EB504005B
:10301000012000900648019007A805002A00210021
:1030200000A8FFF7EDFD060030007EBC5DF810FB48
:103030001D78000080B54FF4FA7000F001F801BD72
:1030400000231900814209D2054B1B681A00002A8F
:1030500002D000BF521EFAE7491CF3E77047000098
:10306000140AFF1F01000A000023002A01D10020DA
:1030700007E01000421C0078002801D05B1CF8E734
:10308000180070472DE9FC4700247F255FF0000AF7
:1030900000275FF000095FF000080026DFF8C8078E
:1030A000DFF8C81709680160DFF8C407DFF8C41744
:1030B00009680160012209210020FFF714F9FFF7D8
:1030C000B3F98046012212210020FFF70CF9FFF727
:1030D000ABF906004046DFF8A01700F02DFC24D81D
:1030E0003000DFF8981700F027FC1ED8DFF89007B3
:1030F0000078002810D1DFF88C0701210170DFF87B
:10310000800701210170DFF8800701210170002292
:1031100000210320FEF7DFFEDFF8640700780228B5
:1031200003D1DFF85C0703210170DFF85407007852
:10313000032829D14046DFF8541700F00FFC05D3CF
:103140003000DFF84C1700F009FC1DD2DFF834071F
:1031500000210170DFF8280700210170DFF8340733
:1031600000210170DFF8300700210160DFF82C0733
:1031700000210160012200210320FEF7ACFE0122A4
:1031800005210020FEF7A7FEDFF8FC0600780128E5
:1031900031D1DFF80C070068DFF8081700F0DEFB1C
:1031A00029D2DFF804070068DFF800170968FFF785
:1031B0004BF9DFF8F4160860DFF8F4060068DFF872
:1031C000F4160968FFF740F9DFF8E4160860DFF845
:1031D000D8060068DFF8D8160968FFF735F9FFF759
:1031E000F3F900225FF0804300F0CAFBFFF788FA92
:1031F000DFF8AC160860DFF88C060078002840F095
:10320000A881DFF8B4060068DFF8B016096808186E
:103210000700012F16DB002F01D500200700802FAB
:1032200001DB7F200700DFF89806385CDFF8901696
:10323000791811F8011C401A552801D13C0001E011
:103240007F1EE6E7DFF870060068DFF87016096891
:10325000401A07007F2F15DA002F01D50020070044
:10326000802F01DB7F200700DFF85406385CDFF891
:10327000501679184978401A552801D13D0001E0CF
:103280007F1CE7E7002C3CD07F2D3AD0A54229DAFD
:10329000601B142826DADFF8D005DFF82816096845
:1032A0000160DFF8CC05DFF82016096801606019BD
:1032B000022190FBF1F0DFF800160860DFF80C0641
:1032C00001210170002205210020FEF704FE0022EA
:1032D00004210020FEF7FFFD002200210320FEF75D
:1032E000FAFD27E0DFF8E405002101700122052145
:1032F0000020FEF7F0FD012200210320FEF7EBFD88
:1033000018E07F2D08D1002C06D1DFF8AC05DFF8DE
:10331000A815096801600DE0DFF8B0050021017013
:10332000012205210020FEF7D6FD01220021032005
:10333000FEF7D1FDDFF894050078002840F0098100
:10334000002004007F200500DFF86C0500680700FE
:10335000012F12DB802F01DB7F200700DFF86005E3
:10336000385CDFF85C15791811F8011C401A5528F3
:1033700001D13C0001E07F1EEAE7DFF83C05006870
:1033800007007F2F11DA002F01D500200700DFF89A
:103390003005385CDFF8281579184978401A552827
:1033A00001D13D0001E07F1CEBE7002C00F08F8095
:1033B0007F2D00F08C80281BDFF814150860DFF8E3
:1033C00010050068502859DADFF808050078002851
:1033D00039D1DFF8E404DFF8E01409680160DFF8B0
:1033E000F8040068DFF8F4140968891D88421EDAC1
:1033F000DFF8E8040068801FDFF8DC140968884201
:1034000015DADFF8CC040068DFF8CC140968891DF0
:1034100088420CDADFF8C0040068801FDFF8B014BF
:103420000968884203DADFF8AC0401210170DFF893
:10343000AC04DFF8A41409680160DFF89C04DFF82D
:10344000901409680160DFF88C04007801281CD111
:10345000D5F18000844208DA2819022190FBF1F0AE
:103460001438DFF8541408600FE02819022190FB8B
:10347000F1F01430DFF84014086006E0281902214A
:1034800090FBF1F0DFF830140860DFF844040068C6
:10349000792803DBDFF8380478210160DFF8300495
:1034A0000068642813DADFF82C040078002804D1BF
:1034B000DFF81C046421016009E0DFF814040068EF
:1034C000DFF81C140968401ADFF8041408607F2D27
:1034D0000BD1002C09D0DFF8F8030068022190FB23
:1034E000F1F00019DFF8D0130860002C0CD17F2D0B
:1034F0000AD0DFF8DC030068022190FBF1F0281A03
:10350000DFF8B413086007E07F2D05D1002C03D14C
:10351000DFF8A40340210160DFF8B8030078012838
:1035200017D1DFF8C0030068401CDFF8B81308604B
:10353000DFF8B00300681F280BDBDFF8A8030021C9
:103540000160DFF8900300210170DFF884037A2125
:103550000160DFF830030078012840F0E480DFF8F4
:103560000803DFF884130160DFF80403DFF87C133D
:103570000160DFF80C030078012805D1DFF8700343
:10358000DFF8701309680160DFF82C03006807009A
:10359000012F12DB802F01DB7F200700DFF82003E3
:1035A000385CDFF81C13791811F8011C401A5528F3
:1035B00001D13C0001E07F1EEAE7DFF8FC02006871
:1035C00007007F2F0FDA002F01D500200700BC482D
:1035D000385CBB4979184978401A552801D13D001B
:1035E00001E07F1CEDE7002C32D07F2D30D0281B6E
:1035F000B7490860B0480068772803D0AE48006833
:10360000092802D1A34801210170A34800210160CB
:10361000A24800210160AE4800685A2804DAA64892
:10362000A5490968016005E02819022190FBF1F025
:10363000A1490860A6480068792802DBA4487821DF
:103640000160A3480068642802DAA148642101608F
:103650007F2D2ED1002C2CD08E480078002820D130
:1036600095485921016094480068092802D1894889
:103670000121017088480021016088480068401CD1
:1036800086490860854800680B2802DB8A48772154
:1036900001608248006833280BDB8048002101600C
:1036A00007E08B480068022190FBF1F00019824985
:1036B0000860002C2FD17F2D2DD07648007800286F
:1036C00020D17D48272101607B480068772802D1FE
:1036D0007048012101707148002101606E48006846
:1036E000401C6D4908606C4800680B2802DB72487A
:1036F0000921016068480068332814DB664800210E
:10370000016010E072480068022190FBF1F0281A75
:103710006949086007E07F2D05D1002C03D1664878
:1037200065490968016074480078012813D10020B8
:103730000700802F05DA71487149795C39547F1C84
:10374000F7E770485C49096801606B480021017027
:103750006D480121017058480068FEF75BFEFEF7D6
:1037600033FF0022694BFEF757FFFEF7C9FF824681
:1037700001220F210120FEF7B6FDFEF755FE644938
:1037800008606448006862490968FFF70FF86049FB
:1037900008603B480078012825D1414800685E490F
:1037A00000F0CAF81FD85A4800685C4900F0C4F815
:1037B00005D9574800685A4900F0D0F813D230486C
:1037C000022101703048002101703548002101605C
:1037D00035480021016036480021016000220521A2
:1037E0000020FEF778FB204801685046FEF7D2FB28
:1037F000FEF7EAFECDE90001454800681C4909686A
:10380000FEF7C8FBFEF7E0FE0022464B00F0B8F8DA
:10381000DDE90023FEF700FFFEF772FF81462C482A
:103820000068FEF7F7FD4049C86023480068FEF7CE
:10383000F1FD3D4948603C48C0F800803A48866048
:103840003A480068032801D100F0E3F94846FEF742
:10385000BBFE91F00041FEF753FF35490860354843
:10386000C0F80090BDE8F3876006FF1F6806FF1FE1
:103870006406FF1F6C06FF1F01008C420100F0412F
:103880001A0AFF1F190AFF1F180AFF1F0000204213
:10389000000070411C0AFF1F2009FF1F2409FF1FA1
:1038A0009408FF1F00803B468C08FF1F7808FF1F0D
:1038B0009008FF1F7408FF1F5406FF1F7C06FF1FA0
:1038C000E007FF1F8006FF1F8406FF1F1D0AFF1F62
:1038D0005C06FF1F1B0AFF1F7006FF1F7406FF1FF9
:1038E0008806FF1F1C09FF1F0000104133333340BF
:1038F000C809FF1F7806FF1F1407FF1F9808FF1F46
:103900006007FF1F5806FF1F220AFF1F000050C05C
:103910001809FF1FD009FF1F01803B450100C84364
:103920000000C8C3000024407009FF1FD809FF1F12
:10393000000AFF1FFC09FF1F4FF0807C1CEB400FAB
:1039400094BF1CEB410F05E040EA010C5FEA4C0C10
:1039500001D28142704718BF884270474FF0807C87
:103960001CEB400F94BF1CEB410F05E040EA010C3B
:103970005FEA4C0C01D28842704718BF8142704701
:10398000F0B540F2FF7581EA030C0CF0004C15EA2B
:1039900011541DBF15EA1357AC42AF42E5E0BC41DC
:1039A000C1F31301C3F31303801A994143F4801345
:1039B00004D2641E4000494180185941C90241EABD
:1039C0005051B1FBF3F603FB1611A2FB0675D7EBC2
:1039D000C020A94102D2761E80185941C90241EA8D
:1039E0005051B1FBF3FE03FB1E11A2FB0E75D7EB8A
:1039F000C020A94103D2AEF1010E801859418902BD
:103A000041EA9051760546EA8E2EB1FBF3F603FBB0
:103A10001611A2FB0675D7EB8020A94102D2761EB3
:103A200080185941C90241EA50514EEA060EB1FBD5
:103A3000F3F603FB1611A2FB0675D7EBC020A941D4
:103A400002D2761E80185941C90241EA5051B1FB99
:103A5000F3F703FB1711A2FB0735D3EBC020A941F5
:103A600067F100070CBF004247F0010766F3D52756
:103A70004FEA1E31B80814F5806412DDBD0775F1F8
:103A8000004250EB0E5051EB045111F5801F5CBF0A
:103A900041EA0C01F0BD4CF07F6141F0E0410020B3
:103AA000F0BDBD076D0840EA0E5041F48011D4F11D
:103AB0000104B4F120060ADAC4F120060200E04055
:103AC00001FA06F3E1401843B24015430EE0342CEE
:103AD00013DCC6F1200445EA40056D0820FA06F221
:103AE000154321FA06F0A1400D43002175F1004273
:103AF00050F1000051EB0C01F0BD00205FEA0C0119
:103B0000F0BDCFB992185B41B3FA83F704BFB2FAA4
:103B100082F6BF190B3FB7F120062FBF02FA06F35A
:103B2000BB40C7F1200622FA06F638BF3343BA403D
:103B30001CB1E419641E33E77F4231F00041B1FA51
:103B400081F404BFB0FA80F6A4190B3CB4F120064E
:103B50002FBF00FA06F1A140C4F1200620FA06F6B4
:103B600038BF3143A0403C1B1AE7AC421ABF05EAFC
:103B70001357AF4212E050EA41061CBF52EA430617
:103B8000BFE750EA4107304661461CBF41EA055194
:103B9000F0BD52EA430C08BFC143F0BD00204FF412
:103BA000001616EB410F98BF16EB430F08BF16EB3C
:103BB000410F24BFC14305E016EB430F0CBF614624
:103BC0004CEA0551F0BD000030B402004FF6FF751D
:103BD000280000252B00DBB2C9B28B4216D2DBB223
:103BE0009D5C684000252C00E4B2082C0CD2C5076F
:103BF00006D580B2400880F4204090F0010001E03A
:103C000080B24008641CEFE75B1CE4E780B230BC84
:103C1000704730B58BB007A8102100F061F903A8F8
:103C2000102100F05DF900A80021002200230EC041
:103C30000C38002500200400E4B2042C13D2E4B2B6
:103C4000A04850F82400FEF711FAE4B207A941F8A1
:103C50002400E4B203A8E4B207A951F8241040F804
:103C60002410641CE8E700200400E4B2042C19D2FC
:103C7000E4B203A850F824004FF48071B0FBF1F2D5
:103C800002FB1102E4B200A800F81420E4B203A879
:103C900050F82400000AE4B200A911EB4401487076
:103CA000641CE2E7082100A8FFF78EFF0500ADB213
:103CB0004FF4807095FBF0F101FB10518DF8081066
:103CC000ADB24FF4807095FBF0F08DF80900002044
:103CD0000400E4B20A2C07D2E4B200A8215C02205E
:103CE00000F0E7F9641CF4E70BB030BD30B58BB0E1
:103CF00007A8102100F0F4F803A8102100F0F0F854
:103D000000A80021002200230EC00C38002500204E
:103D10000400E4B2042C13D2E4B26B4850F824003F
:103D2000FEF7A4F9E4B207A941F82400E4B203A81D
:103D3000E4B207A951F8241040F82410641CE8E705
:103D400000200400E4B2042C19D2E4B203A850F815
:103D500024004FF48071B0FBF1F202FB1102E4B2D7
:103D600000A800F81420E4B203A850F82400000AC8
:103D7000E4B200A911EB44014870641CE2E7082199
:103D800000A8FFF721FF0500ADB24FF4807095FB4E
:103D9000F0F101FB10518DF80810ADB24FF48070B6
:103DA00095FBF0F08DF8090000200400E4B20A2C25
:103DB00007D2E4B200A8215C022000F07AF9641C6A
:103DC000F4E70BB030BD10B50221022000F071F90C
:103DD000FD21022000F06DF900200400802C13DA90
:103DE0003A480068801EA04207DA38480068401C44
:103DF000844202DA3648002121543548215C0220F1
:103E000000F057F9641CE9E7FD21022000F051F9A8
:103E10000221022000F04DF910BD10B50221022050
:103E200000F047F9FD21022000F043F900200400D2
:103E3000802C13DA25480068801EA04207DA234848
:103E40000068401C844202DA2248002121542148A3
:103E5000215C022000F02DF9641CE9E7FD2102201D
:103E600000F027F90221022000F023F910BD10B55F
:103E70000221022000F01DF9FD21022000F019F9B5
:103E800000200400802C13DA13480068801EA04232
:103E900007DA11480068401C844202DA0F4800210A
:103EA00021540E48215C022000F003F9641CE9E76C
:103EB000FD21022000F0FDF80221022000F0F9F8B7
:103EC00010BD00007009FF1F7C08FF1F5406FF1F74
:103ED000E007FF1F6007FF1F5806FF1F9808FF1F1E
:103EE000002200F023B90000F0B4C0B2002808D0CE
:103EF000022824D014D304283FD02FD305284BD038
:103F000059E0794E4FF440773760784E4FF4407760
:103F10003760774E366856F48066754F3E604AE0EB
:103F2000744E4FF440773760734E4FF440773760EC
:103F30006F4E366856F400666D4F3E603BE06F4E44
:103F40004FF4407737606E4E4FF440773760684EDD
:103F5000366856F48056664F3E602CE0694E4FF44A
:103F600040773760684E4FF440773760604E366870
:103F700056F400565E4F3E601DE0644E4FF44077AD
:103F80003760634E4FF440773760624E366856F4C0
:103F90008066604F3E600EE05F4E4FF440773760C2
:103FA0005E4E4FF4407737605A4E366856F40066DE
:103FB000584F3E60FFE7C0B2594E56F82060F67881
:103FC00016F0F306C0B2564F57F82070FE70C0B21C
:103FD000534E56F820600027B770C0B2002801D1B8
:103FE000012600E00026C0B2012801D1012700E02F
:103FF0000027F6B2FFB23E43002E06D0494E366887
:104000004FF47A777E43350005E0474E36684FF42B
:104010007A777E4335000E01B5FBF6F63200C0B26A
:104020003F4E56F82060367816F0E006340092B223
:10403000160A16F01F062643C0B2394F57F82070F3
:104040003E70C0B2364E56F8206072706E010F019D
:10405000B6FBF7F692B2B6EB42163300C0B2304E62
:1040600056F82060B67A16F0E0063400C0B22C4E46
:1040700056F8206013F01F072743B772C0B2284ECE
:1040800056F82060F67856F00C06C0B2244F57F868
:104090002070FE70F0BC7047C0B2214951F820106A
:1040A00009798906F8D5C0B21D4951F82000C079B8
:1040B0007047C0B21A4A52F8202012791206F8D579
:1040C000C0B2174A52F82020D171704738B50400A9
:1040D0000D002878002806D029782000C0B2FFF70C
:1040E000E8FF6D1CF5E731BD18C004401CC004405A
:1040F000348004400CB0044010B004400CC00440B4
:1041000008C0044040B0044044B0044064D00440BF
:1041100060D004402880044024D0044020D00440D3
:104120002C07FF1F0C0AFF1F140AFF1F00B500BF5A
:10413000130096469446103928BFA0E80C50FAD8D0
:104140005FEA417C28BF0CC048BF40F8042BC90778
:1041500028BF20F8022B48BF00F8012B00BD00004B
:10416000000000000000000000000000000000004F
:10417000000000F8000000000000003330000000E4
:1041800000100C06100C06000000000000000000EB
:1041900040C07840C0784000043F04043F0404005D
:1041A000007088FC08300000001820FF211E00006D
:1041B000F008F000E018000000211C031E211E0082
:1041C00000F00888700000001E2123241927211008
:1041D00010160E00000000000000000000000000AB
:1041E000000000E018040200000000071820400052
:1041F00000020418E0000000004020180700000042
:10420000404080F0804040000202010F01020200A5
:10421000000000F0000000000101011F0101010089
:10422000000000000000000080B0700000000000EE
:104230000000000000000000000101010101010177
:10424000000000000000000000303000000000000E
:1042500000000000806018040060180601000000E3
:1042600000E010080810E000000F102020100F00E0
:10427000001010F8000000000020203F2020000067
:1042800000700808088870000030282422213000BF
:1042900000300888884830000018202020110E00C7
:1042A0000000C02010F8000000070424243F240070
:1042B00000F80888880808000019212020110E0045
:1042C00000E0108888180000000F112020110E0057
:1042D00000380808C83808000000003F000000004F
:1042E0000070880808887000001C222121221C0010
:1042F00000E010080810E0000000312222110F0039
:10430000000000C0C00000000000003030000000CD
:10431000000000800000000000008060000000003D
:104320000000804020100800000102040810200056
:1043300040404040404040000404040404040400A1
:104340000008102040800000002010080402010036
:10435000007048080808F000000000303601000036
:10436000C030C828E810E0000718272423140B00E9
:104370000000C038E0000000203C23020227382063
:1043800008F8888888700000203F202020110E0047
:10439000C03008080808380007182020201008003E
:1043A00008F808080810E000203F202020100F0027
:1043B00008F88888E8081000203F202023201800F3
:1043C00008F88888E8081000203F2000030000005B
:1043D000C03008080838000007182020221E0200FC
:1043E00008F808000008F808203F210101213F20BB
:1043F000000808F8080800000020203F20200000E6
:1044000000000808F8080800C08080807F000000D5
:1044100008F888C028180800203F2001263820000E
:1044200008F8080000000000203F20202020300075
:1044300008F8F800F8F80800203F003F003F20008F
:1044400008F830C00008F808203F200007183F0097
:10445000E01008080810E0000F10202020100F00C6
:1044600008F808080808F000203F210101010000B9
:10447000E01008080810E0000F18242438504F00FE
:1044800008F8888888887000203F2000030C3020BE
:1044900000708808080838000038202121221C00FC
:1044A000180808F8080818000000203F2000000045
:1044B00008F808000008F808001F202020201F002E
:1044C0000878880000C83808000007380E0100008E
:1044D000F80800F80008F800033C0700073C030058
:1044E000081868808068180820302C03032C3020BE
:1044F0000838C800C83808000000203F200000002D
:1045000010080808C8380800203826212020180084
:10451000000000FE020202000000007F4040400058
:10452000000C30C000000000000000010638C00090
:1045300000020202FE000000004040407F00000038
:10454000000004020202040000000000000000005D
:10455000000000000000000080808080808080805B
:104560000002020400000000000000000000000043
:1045700000008080808000000019242222223F2039
:1045800008F8008080000000003F112020110E007C
:104590000000008080800000000E1120202011000B
:1045A000000000808088F800000E112020103F20BD
:1045B0000000808080800000001F22222222130041
:1045C000008080F0888888180020203F202000008C
:1045D0000000808080808000006B94949493600041
:1045E00008F8008080800000203F210000203F204C
:1045F00000809898000000000020203F202000004C
:10460000000000809898000000C08080807F00003B
:1046100008F8000080808000203F24022D30200018
:10462000000808F8000000000020203F20200000C3
:104630008080808080808000203F20003F20003FDD
:104640008080008080800000203F210000203F20EB
:104650000000808080800000001F202020201F009C
:10466000808000808000000080FFA12020110E00CB
:104670000000008080808000000E112020A0FF80BC
:10468000808080008080800020203F212000010069
:1046900000008080808080000033242424241900BE
:1046A000008080E0808000000000001F20200000CB
:1046B0008080000000808000001F202020103F200C
:1046C000808080000080808000010E30080601009C
:1046D00080800080008080800F300C030C300F0041
:1046E00000808000808080000020312E0E3120006C
:1046F000808080000080808080818E70180601009C
:1047000000808080808080000021302C22213000B9
:1047100000000000807C020200000000003F4040DA
:1047200000000000FF00000000000000FF0000008B
:104730000002027C800000000040403F00000000BA
:104740000006010102020404000000000000000055
:1047500082B000F08DFA00F0A7FA00F005FBDFF858
:10476000E803FEF752FCDFF8E4030068DFF8E0132B
:104770004979491CB0FBF1F00090DFF8D0030068E4
:10478000DFF8CC130979491CB0FBF1F3DFF8BC0367
:104790000068DFF8BC13C978491CB0FBF1F2DFF800
:1047A000AC030168DFF8AC03FEF72FFCDFF8A803C9
:1047B0000078400703D5DFF8A403FEF726FCDFF8F6
:1047C00098030078800703D5DFF89403FEF71DFCFB
:1047D000DFF884030078C00703D5DFF88803FEF70D
:1047E00014FCDFF884030078000603D5DFF87C03AF
:1047F000FEF70BFCDFF870030078400603D5DFF806
:104800007003FEF702FCDFF860030078800603D532
:10481000DFF86003FEF7F9FBDFF84C030078400790
:1048200003D5DFF85403FEF7F0FBDFF83C03007814
:10483000800703D5DFF84403FEF7E7FBDFF8280322
:104840000078C00703D5DFF83803FEF7DEFBDFF89A
:104850003403FEF7DAFBDFF83003DFF83013884269
:1048600004D0DFF82C03FEF7D0FB03E0DFF82403CD
:10487000FEF7CBFB00F003F800F0A4FAFEE780B5EA
:10488000DFF814030068000910F0070000280BD0BF
:10489000022813D00DD3042819D014D306281ED013
:1048A00019D307281FD022E0DFF8F002FEF7ADFB96
:1048B00020E0DFF8EC02FEF7A8FB1BE0DFF8E402E3
:1048C000FEF7A3FB16E0B848FEF79FFB12E0B748DF
:1048D000FEF79BFB0EE0B648FEF797FB0AE0B548F3
:1048E000FEF793FB06E0B448FEF78FFB02E0B34807
:1048F000FEF78BFBA848006810F00F00022812D0CA
:10490000042814D0052816D0062818D007281AD055
:1049100008281CD009281ED00A2820D00C2822D014
:104920000E2824D027E0A648FEF76FFB26E0A54816
:10493000FEF76BFB22E0A448FEF767FB1EE0A348EE
:10494000FEF763FB1AE0A248FEF75FFB16E0A14802
:10495000FEF75BFB12E0A048FEF757FB0EE09F4816
:10496000FEF753FB0AE09E48FEF74FFB06E09D482A
:10497000FEF74BFB02E09C48FEF747FB86480068C9
:10498000000B10F00F00002803D0022809D004D338
:104990000BE09648FEF739FB0AE09548FEF735FB39
:1049A00006E09448FEF731FB02E09348FEF72DFB4A
:1049B00000F06AF891480068000E10F00F00072818
:1049C00006D0092808D00B280AD00F280CD00FE0F9
:1049D0008B48FEF71AFB0EE08A48FEF716FB0AE04A
:1049E0008948FEF712FB06E08748FEF70EFB02E05F
:1049F0008648FEF70AFB86480068000203D5854812
:104A0000FEF703FB1EE07D480068000F002806D07B
:104A1000072808D009280AD00F280CD00FE07E48BC
:104A2000FEF7F3FA0EE07D48FEF7EFFA0AE07C4865
:104A3000FEF7EBFA06E07A48FEF7E7FA02E079487B
:104A4000FEF7E3FA78480068000B10F00F00052825
:104A500006D0072808D008280AD009280CD00FE073
:104A60007248FEF7D2FA0EE07148FEF7CEFA0AE07D
:104A70007048FEF7CAFA06E06F48FEF7C6FA02E091
:104A80006E48FEF7C2FA01BDF8B56D48032101700A
:104A90006C48002101706C48002101706B480021B6
:104AA00001706B48012101706A48802101706948DA
:104AB00000780006FBD56848007804006748007855
:104AC0000500674800780600664800780700FFB2D6
:104AD0000097F6B23300EDB22A00E4B2210062483A
:104AE000FEF793FA564803210170564800210170E1
:104AF0005548002101705548042101705448012196
:104B00000170544880210170524800780006FBD59E
:104B1000514800780400514800780500504800785A
:104B20000600504800780700FFB20097F6B2330045
:104B3000EDB22A00E4B221004C48FEF766FA45487F
:104B4000FF210170F1BD000074740000100AFF1F06
:104B50001807FF1FBC71000000E007404C77000001
:104B6000347500001C79000001E007405C7700000C
:104B70009C76000088750000A0750000507500004C
:104B800028790000947400000000FF1F000000005E
:104B900034790000407900002480044098790000B6
:104BA000A0790000A8790000B0790000B879000071
:104BB000C0790000C8790000D0790000A07300001F
:104BC0006C7700007C7700008C7700009C770000F9
:104BD000AC770000BC770000CC770000DC770000E9
:104BE000EC770000FC77000074730000B0760000E2
:104BF000C4760000D8760000047200004C800440A7
:104C0000B8750000D0750000E8750000B4740000AD
:104C1000508004400C7800000076000018760000F8
:104C200030760000D474000000700440EC76000080
:104C30000077000014770000287700006C750000F2
:104C40000700024006000240050002400400024046
:104C50000F000240000002400B0002400A00024028
:104C60000900024008000240C8730000F47400000C
:104C700080B500F009F80A4800884FF6FE71084038
:104C80000749088001BD000072B606484CF2205169
:104C9000018004484DF62811018062B6704700007B
:104CA000002005400E2005402DE9F8432448254901
:104CB00088420DD000208046B8F5826F08D2204887
:104CC000204951F8281040F8281018F10108F3E79E
:104CD0001B4800F0A7FA1C4807001C4806001C48A7
:104CE0000400A01B80464046B0F10108002804D013
:104CF00030783870761C7F1CF5E7164881461648D8
:104D00000500B5EB090080464046B0F101080028D7
:104D100005D0002089F8000019F10109F4E70F48D7
:104D20000F49104A531A98464346B3F10108002B25
:104D300004D00B780370491C401CF5E7BDE8F183F3
:104D40000000FF1F000000003006FF1F5C70000025
:104D5000707100004407FF1F230AFF1F1004FF1F8C
:104D6000F46A0000146D000080B51148006850F42A
:104D700078500F490860C82000F0B6FA0D49086065
:104D80000C4800684FF47A7148430B4908600A48A0
:104D900000680A490968C1F30361491CB0FBF1F0DE
:104DA000074908604FF496410120FFF79DF801BDC7
:104DB00038800440100AFF1F0C0AFF1F4480044083
:104DC000140AFF1FFBF753FEFBF76BFEFCF70AFF0D
:104DD0000123012204210020FDF722F800230122F3
:104DE00005210020FDF71CF80123012200210320EA
:104DF000FDF716F80123012214210120FDF710F818
:104E00000123012216210120FDF70AF80D210020BF
:104E1000FDF74EF90C210020FDF74AF90F21012082
:104E2000FDF746F908210020FDF742F9092100208D
:104E3000FDF73EF912210020FDF73AF95FF4E13168
:104E40000220FFF751F800F0C9FB00F087FD00F0E9
:104E500097FDFEF7EFF8FEF7EDF8DFF844030021C9
:104E60000160DFF83C030068642829DA01220C2184
:104E70000020FDF738FA80B2FDF7D6FADFF82413E8
:104E80000968FDF7E1FADFF81C13086001220F2121
:104E90000120FDF728FA80B2FDF7C6FADFF8081303
:104EA0000968FDF7D1FADFF8001308600B20FEF760
:104EB000C7F8DFF8EC020068401CB9490860D0E789
:104EC000B8480068FDF780FB0022B84BFEF758FD9C
:104ED000FDF716FCB3490860B3480068FDF774FBA2
:104EE0000022B24BFEF74CFDFDF70AFCAE4908600C
:104EF000AB4800210160AA4800681E2807DA00F0CC
:104F000051FCA7480068401CA5490860F3E701224E
:104F100005210020FCF7DFFF00F04AFDA4480168EE
:104F2000002000F0FFFDA34800780028FBD0A24835
:104F300000680428F7D19F4800210170FEF797FF11
:104F40009E4801210170EEE780B59D480068401C35
:104F50009B4908609A480068012818D100F01AFEA1
:104F600000F042FD9748016897480068FDF76CFA29
:104F70005FF08041FDF7AAFA94490968FDF764FAE9
:104F800092490860002213210120FCF7A4FF8C48FD
:104F90000068022817D1012213210120FCF79BFF92
:104FA00000F000FC8A48006805280ADA00F076FC68
:104FB000884889490968016085480068401C84491F
:104FC000086000F04BFC7E480068032811D17A4845
:104FD0000068072801D0FEF755F8774800680528D3
:104FE00001D1FEF7F0FE74480068062801D1FEF7F3
:104FF00014FF73480068062811D1784800680A2811
:105000000BD16D480068072801D000F0CDFE734831
:10501000002101606D480021016000F025FF684813
:105020000068082818D16E480068032812D16D481E
:10503000006800280ED16C48002101606B480021F7
:1050400001606B48002101606A48002101606A48E4
:105050000021016000F0EAFA59480068092828D1C7
:1050600060480068002803D05E48006806280BD11D
:105070005B48006801281CD160480021016060483D
:1050800060490968016014E056480068642148439B
:105090005D49096888420CDA584800210160584887
:1050A0005849096801604F480068642148435649DF
:1050B0000860434800680A286ADB41480021016013
:1050C00052480068401C514908604F480068401C25
:1050D0004D49086041480068401C404908604C4800
:1050E0000068401C4A4908604A480068082807DBF5
:1050F000484800680C2803DA47480121016002E0B3
:105100004548002101604348002101604248006891
:10511000012807D140480021016040480068401C38
:105120003E4908603A4800680A2831D138480021D1
:1051300001603A48006809280FDB38480021016007
:1051400027480068012820D125480221016000225B
:1051500004210020FCF7BFFE17E02148006800286A
:1051600007D11F4801210160012204210020FCF722
:10517000B2FE1B480068022807D1194803210160CC
:10518000012204210020FCF7A6FE24480021016032
:105190002348006850F001002149086001BD00006B
:1051A000C009FF1FC409FF1FD009FF1F000059409D
:1051B000140AFF1F220AFF1FD809FF1F1407FF1F31
:1051C000B009FF1F7408FF1F7808FF1FCC09FF1FDD
:1051D000D409FF1F5C07FF1F5807FF1FBC09FF1FF3
:1051E000E409FF1FDC09FF1FF409FF1FFC09FF1F73
:1051F000040AFF1FF809FF1F000AFF1F2807FF1FEF
:10520000C809FF1F1007FF1FB809FF1FB409FF1FC0
:10521000F009FF1FE809FF1FE009FF1FEC09FF1F4E
:105220000C71034026490860704738B504005C2CB7
:1052300002DB2448FDF7E9FE202094FBF0F0050096
:10524000002D03D0022D27D013D337E001202021D9
:1052500094FBF1F202FB114290401B4908600120CF
:10526000202194FBF1F202FB1142904017490860A3
:1052700024E00120202194FBF1F202FB1142904036
:10528000134908600120202194FBF1F202FB114236
:1052900090401049086011E00120202194FBF1F2B8
:1052A00002FB114290400C4908600120202194FB30
:1052B000F1F202FB114290400849086031BD000044
:1052C00008ED00E04472000080E200E000E100E050
:1052D00084E200E004E100E088E200E008E100E0B0
:1052E000DFF800F0E105FF1F38B50400E4B2002C40
:1052F00000F00681E4B2200030281ED0322823D0EE
:10530000602828D064282DD06E2832D0782837D055
:105310007D283CD0822841D08C2846D096284BD07E
:10532000A02850D0AA2855D0B4285AD0C8285FD079
:10533000E12864D0FA2869D06FE0A04818210170F4
:105340009E48002141706CE09C48182101709B48E8
:105350000121417065E09948182101709748182192
:1053600041705EE095481821017094481A214170FF
:1053700057E092481821017090481F21417050E079
:105380008E48132101708D481821417049E08B48E7
:105390001321017089481A21417042E08748132186
:1053A000017086481C2141703BE084480E21017049
:1053B00082481221417034E080480E2101707F48FC
:1053C000152141702DE07D480E2101707B48182188
:1053D000417026E079480E21017078481B21417008
:1053E0001FE076480E21017074481E21417018E0BC
:1053F00072480C21017071481C21417011E06F4806
:105400000B2101706D481E2141700AE06B480A2192
:1054100001706A481F21417003E06420FFF764FFB8
:10542000CAE0664800218170E4B2332C03D263489D
:105430000021C17017E0E4B2652C03D25F4801215E
:10544000C17010E0E4B2972C03D25C480221C17015
:1054500009E0E4B2C92C03D258480321C17002E02C
:1054600056480F21C17055485449C9780171E4B2BA
:105470001A2C03D251480021417141E0E4B2332C8F
:1054800003D24E48012141713AE0E4B24C2C03D2E0
:105490004A480221417133E0E4B2652C03D2474807
:1054A000032141712CE0E4B27E2C03D24348042155
:1054B000417125E0E4B2972C03D2404805214171A7
:1054C0001EE0E4B2B02C03D23C480621417117E043
:1054D000E4B2C92C03D239480721417110E0E4B28B
:1054E000E22C03D235480821417109E0E4B2FB2CDB
:1054F00003D232480921417102E030480F21417145
:105500002E484078183080B2322148432B49097820
:10551000491C89B290FBF1F0050029480021017077
:105520002848006850F080502649086026480078D6
:1055300050F08000244908702448982101702448C4
:105540000078C006FBD422480078C0F38100C0B2C6
:105550000228F8D11948007810F01F001D49087082
:105560001D480021017015484379144802791348F9
:10557000C17812488078FFF7B3FE1048407810F0E9
:105580001F0050F040001449087011480078800650
:10559000FBD50F4800784006FBD50C48007810F08A
:1055A0003F000A4908700A480078C0F38100C0B281
:1055B0000328F8D12800C0B232BD00BF1807FF1F72
:1055C000014006403480044008C0074000400640C7
:1055D00006400640044006400540064080B50123D1
:1055E000012205210220FCF71BFC002301220121DE
:1055F0000220FCF715FC002344F620620121002064
:1056000000F090FC0123012206210220FCF708FC97
:105610000023012204210220FCF702FC002344F6AF
:1056200020620221002000F07DFC01BDF8B50025BC
:1056300000264E4801684E480068FCF705FF4D49BA
:105640000968FCF701FF07004B4801684B480068F8
:10565000FCF7FAFE47490968FCF7F6FE040038003B
:10566000FCF7B2FF0022464B00F048FEFDF748F879
:10567000070038004349FEF75FF901D842480700A8
:1056800020004049FEF758F901D83F48040038008F
:105690003E49FEF763F901D23C48070020003B4930
:1056A000FEF75CF901D23948040038000021FEF70A
:1056B00043F90DD8380000F0F3FE05000022042164
:1056C0000220FCF708FC2A000221002000F0B7FDB0
:1056D00020000021FEF730F90DD8200000F0E0FE98
:1056E0000600002201210220FCF7F5FB3200012117
:1056F000002000F0A4FD38000021FEF72FF910D2A1
:1057000023483900FCF7A0FE00F0CAFE0500012284
:1057100004210220FCF7DFFB2A000221002000F018
:105720008EFD20000021FEF719F910D21848210043
:10573000FCF78AFE00F0B4FE0600012201210220DF
:10574000FCF7C9FB32000121002000F078FD07487A
:1057500000210160084800210160002007000020AE
:1057600004000020050000200600F1BDF409FF1F21
:10577000FC09FF1F040AFF1FF809FF1F000AFF1F93
:105780000000F03F0100754400007544000075C43E
:1057900000007A4400210800142802D200BF401CF7
:1057A000FAE7704710B5002210210120FCF793FBA7
:1057B000002212210120FCF78EFBFFF7EBFF0122F4
:1057C00010210120FCF787FBFFF7E4FF01221221E3
:1057D0000120FCF780FBFFF7DDFF002210210120F4
:1057E000FCF779FBFFF7D6FF00220E210120FCF722
:1057F0007AFD52490870002212210120FCF76BFB50
:1058000001200400E4B2802C17D2FFF7C3FF01226D
:1058100012210120FCF75FFBFFF7BCFF00220E21E5
:105820000120FCF760FDE4B24449605400221221DB
:105830000120FCF750FB641CE4E7FFF7ABFF0122FB
:1058400012210120FCF747FBFFF7A4FF00221221E1
:105850000120FCF740FBFFF79DFF10BD10B50024B1
:1058600000F01CF836480021016000200400802C64
:1058700013DA344800683149615C884203DA3248FF
:10588000AA21215407E03048552121542C480068B2
:10589000401C2B490860641CE9E710BDF0B50024EA
:1058A00000250026002725480078050023480078B9
:1058B000060001200400802C09DA2048205CEDB2AB
:1058C000854202D21D48205C0500641CF3E70120DC
:1058D0000400802C09DA1948205CF6B2B04202D2EA
:1058E0001648205C0600641CF3E7EDB20D2D16D2BD
:1058F000EDB2F6B2A81B04280BDBEDB2280000F0D5
:10590000E1FD124A124BFEF73BF8FCF7F9FE0700E7
:105910000EE010480068FCF77DFD070008E0EDB2DE
:105920002800FCF781FD0C490968FCF7CFFD070052
:105930003800FCF79BFB03490860F0BD6007FF1FC0
:105940006008FF1F5807FF1FE007FF1FCDCCCCCC1E
:10595000CCCCF43F5C07FF1F5006FF1F80B500232F
:10596000012210210120FCF75BFA00230122122101
:105970000120FCF755FA0E210120FCF799FB01BD2F
:1059800080B50023012204210020FCF749FA892276
:105990001121012000F0A4FD012301221321012087
:1059A000FCF73EFA012213210120FCF794FA01BD15
:1059B00080B5012347F6FF728121012000F0C6FD6A
:1059C0000023002203210420FCF72AFA00230022EE
:1059D00018210420FCF724FA012347F6FF720E2158
:1059E0000E2000F0B3FD01BD80B503210420FCF7BB
:1059F000B7FAD0F101004249086018210420FCF7F1
:105A0000AFFA40490860012000F09BFE3E49086063
:105A10000E2000F096FE3D490860012000F09FFE38
:105A20000E2000F09CFE36480068002806D136485B
:105A30000068FCF7F9FC364908600BE03248006862
:105A4000FCF7F2FCFCF7C0FD91F00041FCF758FEBA
:105A50002F4908602B480068002806D12B480068B1
:105A6000FCF7E2FC2B4908600BE028480068FCF7D3
:105A7000DBFCFCF7A9FD91F00041FCF741FE254954
:105A800008602548234909680160234820490968BE
:105A900041601E48002101601B48002101601F4831
:105AA0000068022801D1FEF721F901BD0020012183
:105AB00008001B4909680122824011420BD0184995
:105AC0000968012282401143154A11600E49096894
:105AD000491C0D4A11601A21080011490968012268
:105AE000824011420BD00E490968012282401143C5
:105AF0000B4A116005490968491C044A1160704746
:105B00006808FF1F6C08FF1F6408FF1F7008FF1F55
:105B10007808FF1F7408FF1F7C08FF1FD809FF1FAC
:105B2000A0D0044038B504000D001748006850F4B8
:105B30000000154908601548006880088000134976
:105B40000860E4B2200112494550E4B2104810EB5D
:105B50000410C06850F00100E4B20D4911EB0411CB
:105B6000C860E4B20A4810EB0410806850F00300EB
:105B7000E4B2074911EB04118860E4B214F1440067
:105B8000FFF753FB31BD00003C8004400070034030
:105B9000007103402DE9FE4F5FF07C500290DFF86A
:105BA000BCB15FF0000900245FF000085FF0000A5C
:105BB0000025002600276A486A49096801606A488A
:105BC00068490968016001220D210020FCF78BFB68
:105BD000FCF72AFC060001220C210020FCF783FBC5
:105BE000FCF722FC070061480068642805DA5F487A
:105BF0000068401C5D49086009E00122082100207E
:105C0000FCF771FB5A490860584800210160584868
:105C10000068FCF7FFFB5749C86057480660300032
:105C200051490968FCF7C2FD06003800534909686C
:105C3000FCF7BCFD0700524807604E485049096810
:105C4000016050484E49096891F0004101603500FB
:105C5000484845605FF07E513800FCF79BF982466A
:105C600049480068FCF7B0FCCDE900015046FCF75C
:105C7000ABFC464A464B00F041FB464A464B00F01F
:105C80003DFBDDE90023FCF7C7FCFCF739FD81464D
:105C900002980299FCF77EF90090404800683F495D
:105CA0000968FCF777F901000098FCF7CDFBFCF7D9
:105CB0008BFC00F077FDFCF723FD040020002100A1
:105CC000FCF768F9019020002100FCF763F90090CF
:105CD00058465946FCF75EF901000098FCF7B4FB02
:105CE00001000198FCF7F2FBFCF76EFC00F05AFD96
